:020000040800F2
:1000000010050020010100080B180008D115000898
:10001000091800081B050008E31F00080000000085
:100020000000000000000000000000007B1B000832
:10003000A905000800000000791B0008C51B000886
:100040001B0100081B0100081B0100081B01000820
:100050001B0100081B0100081B0100081B01000810
:100060001B0100081B0100081B0100081B01000800
:100070001B0100081B0100081B0100081B010008F0
:100080001B0100081B0100081B0100081B010008E0
:100090001B0100081B0100081B0100081B010008D0
:1000A0001B0100081B0100081B0100081B010008C0
:1000B0001B0100081B0100081B0100081B010008B0
:1000C0001B0100081B0100081B0100081B010008A0
:1000D0001B0100081B0100081B0100081B01000890
:1000E000DD0500081B0100081B010008DFF80CD02B
:1000F00000F0F2F900480047B12100081005002087
:100100000648804706480047FEE7FEE7FEE7FEE7B1
:10011000FEE7FEE7FEE7FEE7FEE7FEE7271C000836
:10012000ED000008202A04DB203A21FA02F0002129
:10013000704721FA02F3D040C2F1200291400843F7
:1001400019467047D2B201E000F8012B491EFBD2DC
:1001500070470022F6E710B513460A4604461946D2
:10016000FFF7F0FF204610BD2DE9FE4F81EA0304A2
:1001700004F0004421F0004100944FF0000B23F004
:10018000004350EA01045ED052EA03045BD0C3F39B
:100190000A54C1F30A552C44A4F2F3340194A0FB91
:1001A0000254C1F3130141F48011C3F3130343F468
:1001B000801301FB024400FB034E840A970A44EAC1
:1001C000815447EA8357A4FB076802958D0A05FB13
:1001D00007854FEA932C04FB0C542705029D4FEA38
:1001E000065847EA1637B5EB08056EEB070C870E85
:1001F000920E47EA811742EA8312A7FB0201B6EB8F
:100200000B0164EB00042B0D43EA0C335E1844EB46
:100210001C50DA465146E7FB0201C5F313044FEACE
:100220000B3343EA14534FEA0432019C43EA0603BA
:10023000A4F10C040294009CCDE900B400F0FEF897
:1002400003B0BDE8F08F00200146F9E72DE9F04D3D
:1002500081EA030404F0004B21F0004514464FF0FE
:10026000000A23F0004150EA050220D054EA0102BE
:100270001DD0C5F30A570246C5F31303C1F313009B
:10028000C1F30A5640F4801543F48013A7EB060827
:10029000101BD64608F2FD3873EB050002D308F1B7
:1002A000010801E092185B41B8F1000F03DA002069
:1002B0000146BDE8F08D00204FF4801106468446CB
:1002C0000EE0171B73EB050705D3121B63EB050349
:1002D00006434CEA010C49084FEA300092185B4192
:1002E00050EA0107EDD152EA030012D082EA04007D
:1002F00083EA0501084305D0101BAB4106D2012259
:10030000002306E000224FF0004302E06FF00102FC
:1003100053101AEB06004CEB085110EB0A0041EBAE
:100320000B01BDE8F04D00F07AB80EB5C10F80EAC0
:10033000E0700844CA07002140F233438DE80E0004
:100340000A460B4600F07AF803B000BD01F0004306
:1003500030B421F0004150EA010206D00A0DA2F5A6
:100360006072C1F31301002A02DC30BC0020704728
:10037000440F44EAC104C100E01830BC00EBC25095
:1003800000F016B830B50B460146002020220124AB
:1003900009E021FA02F59D4205D303FA02F5491B53
:1003A00004FA02F52844151EA2F10102F1DC30BD69
:1003B0000029A8BF7047401C490008BF20F0010079
:1003C000704710B4B0FA80FC00FA0CF050EA010457
:1003D00004BF10BC704749B1CCF1200421FA04F4E9
:1003E00011FA0CF118BF012121430843A3EB0C01C2
:1003F000CB1D4FEA00614FEA102042BF002010BC25
:10040000704700EBC35010440029A4BF10BC7047D4
:10041000401C490008BF20F0010010BC704710B517
:10042000141E73F1000408DA401C41F10001921817
:100430005B411A4301D120F0010010BD2DE9F04DC0
:1004400092469B4611B1B1FA81F202E0B0FA80F215
:100450002032904600F052F804460F4640EA0A0067
:1004600041EA0B0153465A46084313D0114653EA5A
:10047000010019D0C8F140025046FFF753FE05466F
:100480000E4650465946424600F038F8084305D01B
:10049000012004E020463946BDE8F08D00200543E8
:1004A00046EAE0762C4337430A986305E40AA0EB5A
:1004B00008000022FD0A44EA47540A3002D5002011
:1004C0000146E9E7010510196941DDE90845001910
:1004D0006941BDE8F04DA2E7064C074D06E0E06833
:1004E00040F0010394E8070098471034AC42F6D37B
:1004F000FFF700FE1828000838280008202A04DB2F
:10050000203A00FA02F1002070479140C2F1200326
:1005100020FA03F3194390407047FEE770B50C468C
:1005200001461F4D1F4E062923D2DFE801F0032E9E
:100530002318110A01F04EF82868446301221021A3
:1005400013E001F047F8286844630122202117E0F6
:1005500001F040F828688463012220211BE001F0AB
:1005600039F82868846301220821304600F02FFA08
:10057000022070BD01F02EF82868C4630122082112
:10058000304600F024FA012070BD01F023F82868FD
:10059000C46301221021304600F019FA002070BD1A
:1005A00034000020000801407047000010B50948E1
:1005B00000F0A6FD0021084800F002FF04210648D3
:1005C00000F0FEFE0821044800F0FAFEBDE81040ED
:1005D00001F000B87C0000203400002010B54FF47A
:1005E000806000F0F3F84FF4006000F0EFF8BDE831
:1005F00010404FF4805000F0E9B872B6FEE70000FA
:1006000070B5044600F0E8F90546601C02D00448C5
:100610000078044400F0E0F9401BA042FAD370BD1A
:10062000000000202DE9FC41654C4FF48067634ECB
:1006300000252178634AB8423DD109B1032938D158
:1006400039469046104600F0BDF9012805D03946DC
:10065000404600F0B7F9B0B12AE06570A0780128F3
:1006600026D1E078012809D0684601F087FADDE953
:100670000001C4E906012189052082E05248E570A5
:1006800000684562F7E703206070A07801280FD169
:10069000E078012809D0684601F070FADDE9000130
:1006A000C4E90601218902206BE0E570E560F9E705
:1006B0003760BDE8FC814FF40067B8423AD10129A8
:1006C00001D00329F5D139469046104600F07AF959
:1006D000012817D03946404600F074F90028E7D1C8
:1006E00005206070A0780128E2D1E07801281ED0B2
:1006F000684601F043FADDE90001C4E906012189F9
:1007000000203EE002206070A0780128D0D1E0787F
:10071000012809D0684601F031FADDE90001C4E999
:100720000601218903202CE0E570E560F9E7E5701A
:10073000E560E4E74FF48057B842BAD1022901D00E
:100740000329B6D139469046104600F03BF90128FE
:100750001BD03946404600F035F90028A8D10120C9
:100760006070A0780128A3D1E078012823D06846E2
:1007700001F004FADDE90001C4E9060125702189D0
:100780000420FFF7CBFE207092E704206070A07871
:1007900001288DD1E07801280AD0684601F0EEF9F1
:1007A000DDE90001C4E90601257021890120E8E79F
:1007B000E570E560F9E7E570E560E0E71404014005
:1007C00010000020000C01407C000020044910B5FE
:1007D0000A68024202D00860FFF724FF10BD000043
:1007E000140401402DE9F84FDFF8B8910024A9F175
:1007F000040B23460F2709F1040AABF1040EC9E0EC
:100800000125A5402A40AA427DD1674ED1F804C0F7
:10081000ACEB0608B44532D014DCBCF1030F3AD07F
:1008200009DCBCF1000F2AD0BCF1010F1CD0BCF1D7
:10083000020F31D11DE0BCF1110F17D0BCF1120F26
:100840002AD119E0B8F5881F19D006DCB8F5803F29
:1008500015D0B8F5801F1FD111E0B8F5001F0ED0DC
:10086000B8F5041F18D10AE0CB6815E0CB681B1D52
:1008700012E0CB6808330FE0CB680C330CE08B68D8
:100880002BB1012B4FF0080303D0456104E0042392
:1008900002E0056100E00023FF2A01D8064601E0DE
:1008A00000F104064FEA840501D9A5F12005D6F828
:1008B000008007FA05FC28EA0C0803FA05F548EA67
:1008C0000508C6F800804D68ED0062D5374DAE6969
:1008D00046F00106AE61AD6924F0030605F001059E
:1008E0000095334D06EB050CDCF80850A607360FD3
:1008F00007FA06F825EA0805DFF8B880404503D175
:100900004FF0000817E044E0DFF8AC80404502D12A
:100910004FF001080FE0DFF8A480404502D14FF00E
:10092000020808E0DFF89880404502D14FF0030844
:1009300001E04FF0040808FA06F848EA0508CCF888
:1009400008804D68D9F80060ED024D4601D5164388
:1009500000E096432E604D68DAF80060AD0255461F
:1009600001D5164300E096432E604D68DBF8006029
:10097000AD035D4601D5164300E096432E604D68F9
:10098000DEF80060ED03754601D5164300E096439E
:100990002E60641C0D682A46E5407FF431AFBDE847
:1009A000F88F000008040140000011100010024000
:1009B0000000014000080140000C0140001001400F
:1009C000001401408068084000D0012070470AB13F
:1009D000016170470904FBE7014880687047000027
:1009E000000000200248816802781144816070474D
:1009F00000000020074810B5016841F010010160B7
:100A0000032000F075F80F2000F006F800F024F83D
:100A1000002010BD0020024070B50D4D04464FF47B
:100A20007A712878B1FBF0F00A490968B1FBF0F05F
:100A300000F0DCFA48B9102C07D200222146501EE3
:100A400000F036F800206C6070BD012070BD000021
:100A5000000000200C0000200C4808B5816941F01E
:100A600001018161816901F001010091C16941F0D9
:100A70008051C161C06900F0805000900448416815
:100A800021F0E06141F00071416008BD00100240BA
:100A900000000140002809DB00F01F020121914005
:100AA0004009800000F1E020C0F80011704700000C
:100AB000F0B40E4B1B680C46C3F30223C3F10705C9
:100AC000042D00D90425191D072901D2002300E0B7
:100AD000DB1E012606FA05F1491E214099409E4081
:100AE000761E16403143F0BC01F08CBA0CED00E0EC
:100AF000064900F0070208684FF6FF03184040EA75
:100B00000220034A10430860704700000CED00E02B
:100B10000000FA052DE9F0470F46050061D0434E6D
:100B2000306800F00700B84209D2306820F00700B2
:100B300038433060306800F00700B84251D128686F
:100B40003B4C810712D5400703D5606840F4E06054
:100B500060602878000703D5606840F460506060EA
:100B60006068A96820F0F000084360602878C0073A
:100B700028D06868012810D02168022810D0890781
:100B800000292EDA616821F0030101436160FFF75B
:100B900023FF804641F288390DE021688903EFE7A1
:100BA0008901EDE7FFF718FFA0EB0801494502D9DD
:100BB0000320BDE8F0876068696800F00C00B0EBC6
:100BC000810FEFD1306800F00700B8420BD93068D0
:100BD00020F0070038433060306800F00700B8426A
:100BE00001D00120E5E72878400705D56068E9686D
:100BF00020F4E060084360602878000706D560684C
:100C0000296920F4605040EAC100606000F038F8C3
:100C10006168084AC1F30311515CC8400649086085
:100C200006480068FFF7F8FE0020C2E700200240F7
:100C3000001002400E2200080C00002004000020DA
:100C40000448054900684968044AC1F30221515C1F
:100C5000C84070470C000020001002401E2200080F
:100C60000448054900684968044AC1F3C221515C3F
:100C7000C84070470C000020001002401E220008EF
:100C80000E4A51680E4801F00C03042B11D0082BBA
:100C90000FD10C48C1F38343C903C05C0AD5516826
:100CA000084AC1F34041921E515C054A5043B0FBD3
:100CB000F1F07047044948437047000000100240BB
:100CC00000127A00FE21000800093D002DE9F84FCE
:100CD000040070D02078C04DC00749D06868C0F3C8
:100CE0008100012807D06868C0F38100022809D17B
:100CF0006868C00306D52868800339D56068002875
:100D0000E7D035E06068B0F5803F0BD010B1B0F5AA
:100D1000A02F11D0286820F480302860286820F4A3
:100D2000802002E0286840F480302860606890B13C
:100D3000FFF752FE06460AE0286840F4802028604B
:100D4000F0E700BFFFF748FE801B642873D82868CF
:100D50008003F7D50CE0FFF73FFE064605E000BF35
:100D6000FFF73AFE801B6428F0D828688003F7D488
:100D700020789A4E80074FF001094FF0000839D5CE
:100D8000686810F00C0F07D06868C0F38100022873
:100D900009D16868C00306D42868800714D5206983
:100DA000012808D110E02069B0B1C6F80090FFF723
:100DB00013FE074605E00AE1FFF70EFEC01B0228FE
:100DC000C4D828688007F7D52868616920F0F80042
:100DD00040EAC10028600DE0C6F80080FFF7FCFD86
:100DE000074604E0FFF7F8FDC01B022823D8286857
:100DF0008007F7D4207800072CD57948A169D9B1AC
:100E0000C0F80090FFF7E8FD074604E0FFF7E4FDB7
:100E1000C01B02280FD8686A8007F7D571484FF4C5
:100E2000FA510068B0FBF1F0009000BF0098411E3D
:100E30000091FAD20EE080E0C0F80080FFF7CCFD10
:100E4000074604E0FFF7C8FDC01B022875D8686A92
:100E50008007F7D42078400760D5E8690027C000F4
:100E600008D4E86940F08050E861E869012700F0A3
:100E7000805000905C480168C90513D4016883461E
:100E800041F480710160FFF7A7FD824606E000BFD4
:100E9000FFF7A2FDA0EB0A0064284ED8DBF80000A3
:100EA000C005F5D5E06801280AD008B1052813D09F
:100EB000286A20F001002862286A20F0040002E07D
:100EC000286A40F001002862E06841F2883B98B14E
:100ED000FFF782FD82460BE0286A40F0040028629A
:100EE000EEE700BFFFF778FDA0EB0A0159455AD89D
:100EF000286A8007F6D50CE0FFF76EFD824605E014
:100F0000FFF76AFDA0EB0A0159454CD8286A800713
:100F1000F6D41FB1E86920F08050E861E06988B339
:100F20006968C1F38101022944D00228C6F86080B3
:100F300004D0FFF751FD044638E034E0FFF74CFDE4
:100F4000074604E0FFF748FDC01B02282BD828689D
:100F50008001F7D4206AB0F5803F05D16868A168A8
:100F600020F4003008436860D4E908010843696848
:100F700021F4741108436860C6F86090FFF72CFDF7
:100F8000044606E025E000BFFFF726FD001B02280F
:100F900009D828688001F7D51BE000BFFFF71CFDCA
:100FA000001B022802D90320BDE8F88F28688001C1
:100FB000F4D40EE00128F7D06868226A00F480318A
:100FC000914204D1616A00F47010884201D001207E
:100FD000EAE70020E8E7000000100240000042427B
:100FE000800442420C0000200070004010B5401EFA
:100FF000B0F1807F01D3012010BD4FF0E02460618B
:101000000F21601700F0FEFF0020A0610720206183
:10101000002010BD70B590F83C20012A26D0012494
:1010200080F83C40022280F83D2003685A689D68A1
:1010300022F070060A6832435A600D4B02689A42E9
:1010400008D0B2F1804F05D00A4B9A4202D00A4B29
:101050009A4204D1496825F080031943916080F8D1
:101060003D40002180F83C10084670BD022070BD54
:10107000002C0140000400400008004010B50400AE
:1010800003D094F83D0010B107E0012010BD00200E
:1010900084F83C00204600F01FF8022084F83D0050
:1010A000211D206800F0C0FD012084F8460084F86E
:1010B0003E0084F83F0084F8400084F8410084F842
:1010C000420084F8430084F8440084F8450084F822
:1010D0003D00002010BD000008B5006806498842A8
:1010E00008D10648C16941F00201C161C06900F040
:1010F0000200009008BD0000000400400010024003
:1011000090F83D10012901D001207047022180F89C
:101110003D1000680B49884208D0B0F1804F05D0DF
:101120000949884202D00949884204D1816801F006
:101130000701062903D0016841F001010160002088
:1011400070470000002C01400004004000080040EF
:1011500070B5044690F83C000025012817D0012600
:1011600084F83C60022084F83D002068826822F008
:10117000770222F47F4282600868502838D00DDC64
:1011800020284FD005DC90B3102811D14AE002206E
:1011900070BD302846D040280AD13BE060282FD0CF
:1011A00070280DD0B0F5805F03D0B0F5005F12D08D
:1011B000012584F83D60002084F83C00284670BD7D
:1011C000CB68D1E90121206800F077FD20688168B3
:1011D00041F0770109E0CB68D1E90121206800F0F6
:1011E0006CFD2068816841F480418160E1E719E08D
:1011F000CA684968206800F015FE5021206806E0A2
:10120000CA684968206800F01EFE6021206800F06E
:101210005EFDCEE7CA684968206800F003FE402101
:101220002068F4E7226801461046F0E700B585B073
:10123000002100910191029103910068B0F1804F6B
:1012400012D10A48816941F00401816180696946CF
:1012500000F0040004900720009002200190032079
:1012600003900348FFF7BEFA05B000BD001002402E
:101270000008014070B5044690F83C0000260D4679
:1012800001280FD0012084F83C006AB1042A1DD047
:10129000082A2FD00C2A3FD00126002084F83C00D9
:1012A000304670BD022070BD206800F019FD206836
:1012B000816941F0080181612068816921F00401A0
:1012C0008161206881692A69114311E0206800F07A
:1012D0002FFD2068816941F4006181612068816986
:1012E00021F480618161206881692A6941EA0221D3
:1012F0008161D2E7206800F047FD2068C16941F0B4
:101300000801C1612068C16921F00401C161206840
:10131000C1692A69114311E0206800F061FD20686D
:10132000C16941F40061C1612068C16921F4806133
:10133000C1612068C1692A6941EA0221C161ACE743
:1013400010B5040003D094F83D0010B107E001206F
:1013500010BD002084F83C00204600F01FF8022059
:1013600084F83D00211D206800F05EFC012084F817
:10137000460084F83E0084F83F0084F8400084F87A
:10138000410084F8420084F8430084F8440084F863
:10139000450084F83D00002010BD000008B500683D
:1013A000B0F1804F08D10548C16941F00101C16128
:1013B000C06900F00100009008BD0000001002406C
:1013C00010B50446022249B104290ED0082913D0D1
:1013D00094F84100012816D0012010BD94F83E0079
:1013E0000128F9D184F83E200FE094F83F0001284D
:1013F000F2D184F83F2008E094F840000128EBD1B6
:1014000084F8402001E084F841200122206800F0A7
:1014100047FC0F492068884203D1426C42F40042E5
:1014200042642068884208D0B0F1804F05D0094955
:10143000884202D00849884204D1816801F007013E
:10144000062903D0016841F001010160002010BDB0
:10145000002C0140000400400008004070B504006A
:1014600004D094F84100002510B106E0012070BDC1
:1014700084F84050204600F023F8242084F84100EE
:101480002068C16821F40051C160204600F014FDBD
:101490002068016921F4904101612068416921F0CF
:1014A0002A0141612068C16841F40051C16065644E
:1014B000202084F8410084F842006563002070BD5C
:1014C00030B585B000240094019402940394006820
:1014D0001449884224D11448816941F480418161D2
:1014E000816901F480410491816941F004018161C5
:1014F00080690E4D00F0040004904FF400700090DD
:10150000022001900320039069462846FFF76AF9FC
:101510002815CDE90004694628460294FFF762F9D0
:1015200005B030BD00380140001002400008014005
:101530002DE9F843044690F84100984616460D46BA
:10154000202802D00220BDE8F88385B17EB10020BA
:101550006064212084F84100FFF73EFAA6848146AA
:10156000E684A0682027B0F5805F02D003E0012068
:10157000E9E7206910B12E4600250EE000260CE0B8
:101580008021204600F0F4FCA8B9C6B116F8010B82
:1015900021684860E08C401EE084E08C4B464FF0B0
:1015A0000002CDF800800028EAD14FF0400120462B
:1015B00000F0DEFC40B184F841700320C3E735F849
:1015C000020BC0F30800E3E784F841700020BAE79B
:1015D000FEE700000D4910B50A68002050630A6854
:1015E00090630968C8630A4C024608212046FFF749
:1015F000EEF9002210212046FFF7E9F920460022EB
:10160000BDE810402021FFF7E2B9000034000020BF
:10161000000801402DE9F04186B000242A480094DA
:10162000019402940394816941F0200181618169F0
:1016300001F020010491816941F004018161816917
:1016400001F004010491816941F008018161806920
:101650001E4F00F008000490002238213846FFF7A2
:10166000B6F9DFF86C804FF44076012231464046EF
:10167000FFF7ADF93820009001AA0120032582E888
:10168000310069463846FFF7ADF84FF4E05000905E
:101690001048CDE9010469464046FFF7A3F801AAC6
:1016A0001120009682E8310069464046FFF79AF81B
:1016B000002201212820FFF7FBF92820FFF7EAF993
:1016C00006B0BDE8F08100000010024000080140B3
:1016D000000C01400000311010B58AB000240794BE
:1016E0001C2168460894FEF734FD1E484FF08041E7
:1016F00001604721C0E9011440F2E731C0E9031459
:101700008461FFF71DFE08B1FEF777FF079407A974
:1017100014480894FFF77EFC08B1FEF76EFF6020C6
:10172000CDE900040294002269460E480494FFF7B4
:10173000A1FD08B1FEF761FF042269460948FFF7E1
:1017400099FD08B1FEF759FF082269460548FFF7E1
:1017500091FD08B1FEF751FF0248FFF767FD0AB09F
:1017600010BD00003400002010B586B000241748DA
:101770000094019402940394049413490594016025
:1017800040F2CF21C0E901144FF6FF71C0E9031404
:101790008461FFF773FC08B1FEF72FFF4FF4805010
:1017A000009069460948FFF7D3FC08B1FEF725FF12
:1017B000049404A905480594FFF72CFC002801D0E7
:1017C000FEF71BFF06B010BD000400407C000020A7
:1017D0000C4810B50A4901604FF4E1314160002125
:1017E00081600822C160C0E904128161C161FFF714
:1017F00035FE002803D0BDE81040FEF7FEBE10BD48
:1018000000380140C4000020FEE7FEE770B5002468
:101810000021204600F0ABF80025002000F02FF951
:101820006D1CEDB2802DF8D3641CE4B2082CEFD30C
:1018300070BD10B5012000F001F9BDE81040012095
:1018400000F004B970B500240646802525FA04F09E
:10185000304000D0012000F0F9F8012000F0EEF84F
:10186000002000F0EBF8641CE4B2082CEED3012059
:1018700000F0E4F8BDE87040002000F0DFB810B5DB
:10188000012000F0E3F8012000F0D8F8002000F07B
:10189000DDF8BDE81040002000F0D0B810B5002001
:1018A00000F0D4F8012000F0C9F8BDE81040012094
:1018B00000F0CCB810B500204FF47A720021491C1A
:1018C0009142FCD3401C9042F8D3FFF7B2FFAE2008
:1018D00000F0C4F8D52000F0C1F8802000F0BEF878
:1018E000A82000F0BBF83F2000F0B8F8D32000F0AB
:1018F000B5F8002000F0B2F8402000F0AFF8A120C9
:1019000000F0ACF8C82000F0A9F8DA2000F0A6F842
:10191000122000F0A3F8812000F0A0F8CF2000F002
:101920009DF8D92000F09AF8F12000F097F8DB201C
:1019300000F094F8302000F091F8A42000F08EF828
:10194000A62000F08BF88D2000F088F8142000F01D
:1019500085F8AF2000F082F8BDE81040FFF756BFD1
:101960000246012000E05043491EFCD2704710B5EA
:101970000C4640F0B00000F071F8102040EA14105E
:1019800000F06CF804F00F00BDE8104000F066B8FD
:101990002DE9F0410746CE004000083E801E154666
:1019A0004FF0FF38F1B2C0B2FFF7E1FF1148002459
:1019B00000EB05152819A0F5805090F8000E00F0F6
:1019C0005EF8641CE4B2082CF4D308EB4700F1B2D3
:1019D000C0B2FFF7CCFF00242819A0F5805090F882
:1019E000080E00F04CF8641CE4B2082CF4D3BDE8F7
:1019F000F0810000262200082DE9F04700241D4652
:101A00001646884681460A2713E0291B0A20491EEC
:101A1000FFF7A6FFB6FBF0F0B0FBF7F107FB1102F2
:101A200008EB0400C1B248463032FFF7B1FF641C36
:101A3000E4B2AC42E9D3BDE8F0870000C2B24FF493
:101A400080710148FEF7C3BF000C0140C2B24FF4E1
:101A500000710148FEF7BBBF000C014010B5044601
:101A6000FFF70DFF7820FFF7EDFE0020FFF7EAFEFD
:101A70002046FFF7E7FEBDE81040FFF70FBF10B5A7
:101A80000446FFF7FCFE7820FFF7DCFE4020FFF75E
:101A9000D9FE2046FFF7D6FEBDE81040FFF7FEBE98
:101AA0002DE9F05F002741F2707614210520FEF742
:101AB00035FDDFF8BC802F4C4FF0000988F800009E
:101AC0002168C1F82490206842F21075416AA94249
:101AD000FCD314210120FEF721FD88F800002168C5
:101AE000C1F824902068416AA942FCD31421002047
:101AF000FEF714FD88F800002168C246C846C1F808
:101B000024902068416AA942FCD3FFF763FD4FF49B
:101B1000FA70FEF775FDC146D04600254FF0060A63
:101B20004FF4487B97FBFAF10AFB1170C0B22821F1
:101B3000FEF7F4FC88F800002168C1F824902068C2
:101B4000416AB142FCD37F1C5E4501DDA6F51676E5
:101B50006D1CB5F5967FE5DBFFF73CFD012188F8AC
:101B6000021088F80310032188F80010BDE8F09FE8
:101B7000100000207C0000207047704770B50646BA
:101B80000B4805686C6A2046FEF7CFFB094A0A4BF2
:101B9000FEF7EAFA02460B4608480949FEF756FBEB
:101BA000FEF7D4FB00216962C6E9004070BD000069
:101BB0007C000020F168E388B5F8E43E18866118DF
:101BC0008661983FFEF70EBF30B58FB0282168467A
:101BD000FEF7BFFA14210AA8FEF7BBFA0121080498
:101BE000CDE900100024029402250491CDE90750AC
:101BF0004FF4E01009906846FFF768F808B172B634
:101C0000FEE70F20CDE90A054FF48060CDE90C40D6
:101C100002210AA80E94FEF77DFF002801D072B6BB
:101C2000FEE70FB030BD7047F0B50268194B1A4C93
:101C30001A4D4FF08047984205D0B84203D0A042D9
:101C400001D0A84203D122F070064A68324398427C
:101C500005D0B84203D0A04201D0A84203D122F45B
:101C60004074CA6822434C6922F080022243026019
:101C70008A68C2620A688262984201D10969016376
:101C8000012141610169C90703D0016921F0010106
:101C90000161F0BD002C014000040040000800403C
:101CA00010B501F01F030121046A99408C430462BE
:101CB000016A9A401143016210BD10B5846842EA7E
:101CC000032224F47F440A432243826010BD8268C9
:101CD00022F070020A4342F0070181607047000061
:101CE00030B5036A026A22F0010202624268846926
:101CF00024F073050C682C4323F002058B682B43FA
:101D00000A4DA8420BD123F00805CB6822F440729B
:101D10002B434D6923F0040315438A692A4342602B
:101D2000846149684163036230BD0000002C0140BA
:101D300030B5026A036A23F01003036243688469C2
:101D40000D6824F4E64444EA05248D6822F020025C
:101D500042EA05120B4DA8420ED1CD6822F0800256
:101D600042EA05124D6923F4406343EA85038D6915
:101D700022F0400243EA850343608461496881633D
:101D8000026230BD002C014030B5036A026A22F4C1
:101D9000807202624268C46923F4007324F0730500
:101DA0000C682C438D6843EA05230C4DA8420ED1E4
:101DB000CD6823F4006343EA05234D6922F44052C1
:101DC00042EA05128D6923F4806342EA05124260FB
:101DD000C4614968C163036230BD0000002C01404A
:101DE00030B5046A026A22F4805202624268C36912
:101DF0000D6823F4E64343EA05238D6824F4005478
:101E000044EA0534064DA84204D14D6922F48042CB
:101E100042EA85124260C36149680164046230BDD0
:101E2000002C014010B5036A046A24F00104046226
:101E3000846924F0F00444EA021423F00A020A43FD
:101E40008461026210BD10B5036A046A24F01004B4
:101E50000462846923F0A00324F4704444EA02324B
:101E600043EA01118261016210BD01680C3151E841
:101E7000002F22F4907241E80023002BF5D1016875
:101E8000143151E8002F22F0010241E80023002B19
:101E9000F5D1016B012909D101680C3151E8002FFE
:101EA00022F0100241E80023002BF5D1202180F818
:101EB000421000210163704770B504460068016953
:101EC000E26821F44051114301612169A06808438F
:101ED000616908432168CA6841F20C639A4302436E
:101EE000CA6020684169A26921F4407111434161CF
:101EF0001E492068884202D1FEF7B2FE01E0FEF7DB
:101F00009FFE00EBC00101EB0012606864218000BD
:101F1000B2FBF0F3B3FBF1F36FF018067343B2FBBF
:101F2000F0F5B2FBF0F605EB8305322303EB051564
:101F3000B5FBF1F5B6FBF1F605F0F00505EB06157E
:101F4000B2FBF0F6B2FBF0F0B0FBF1F06FF018026C
:101F5000504306EB800003EB0010B0FBF1F021686A
:101F600000F00F002844886070BD00000038014078
:101F70002DE9F843984617460D460446089E24E08E
:101F8000701C22D0FEF728FDA0EB0800B0421AD842
:101F9000CEB12068C168490717D5802D15D0402DD6
:101FA00013D00168C94309070FD4016800254068B0
:101FB00000902046FFF759FF0820606484F84050E5
:101FC0000120BDE8F8830320FBE72068006835EABC
:101FD000000004D00020B842D2D00020F1E7012058
:101FE000F9E7FEE70FB4054B10B503A9044A0298C0
:101FF00000F028F810BC5DF814FB000099210008DF
:10200000300000200907090E002804DB00F1E02061
:1020100080F80014704700F00F0000F1E02080F815
:10202000141D704702E008C8121F08C1002AFAD127
:1020300070477047002001E001C1121F002AFBD148
:10204000704700002DE9FF4F89B09B4604460025EC
:1020500006E025280BD05A460B999047641C6D1C4E
:1020600020780028F5D10DB02846BDE8F08F002774
:10207000B8460122474900E0074314F8013F203BDE
:1020800002FA03F00842F7D120782E2819D114F86B
:10209000010F47F004072A280ED06FF02F02207896
:1020A000A0F1300109290CD808EB880102EB4101AD
:1020B00000EB0108641CF2E70A98641C50F8048BDA
:1020C0000A9020780028CED0642808D0692806D04D
:1020D00075281ED05A460B9990476D1C58E00A99F6
:1020E0004FF00A0901C90A91002802DA40422D2165
:1020F00002E0390504D52B218DF82010012103E0E1
:10210000F90704D02021F7E78A4608AE0DE0002148
:10211000FAE70A994FF00A0901C90A91F7E7494617
:10212000FEF730F9303106F8011D0028F7D1ADEB8C
:10213000060000F12009780701D44FF00108C845D6
:1021400002DDA8EB090000E000208046002706E041
:1021500008A85A46C05D0B9990476D1C7F1C5745D7
:10216000F6DB04E030205A460B9990476D1CB8F11D
:102170000001A8F10108F5DC05E016F8010B5A464C
:102180000B9990476D1CB9F10001A9F10109F4DC2C
:10219000641C65E70928010013B54FF6FF7301229F
:1021A00069460248FFF7C4F900981CBDC40000202E
:1021B000FEF720FCFFF708FDFFF72CFAFFF78CFA7B
:1021C000FFF7D2FAFFF704FB4FF47A70FEF718FA24
:1021D000FFF770FBFEF7EAF9FFF762FC054C06A07B
:1021E0002178FFF7FFFE0223227801210420FFF768
:1021F00003FCF4E711000020256400000102020343
:102200000405060708090A0B0C0D0E0F101000003C
:102210000000000000000102030406070809000096
:1022200000000102030400000000000000000000A4
:10223000000000000000000000F8000000000000A6
:1022400000333000000000100C06100C06000000E7
:1022500000000000000040C07840C0784000043F0B
:1022600004043F040400007088FC083000000018DB
:1022700020FF211E0000F008F000E01800000021FF
:102280001C031E211E0000F00888700000001E21A3
:1022900023241927211010160E0000000000000052
:1022A000000000000000000000E018040200000030
:1022B00000071820400000020418E0000000004061
:1022C000201807000000404080F0804040000202DB
:1022D000010F01020200000000F0000000000101F7
:1022E000011F01010100000000000000000080B09B
:1022F000700000000000000000000000000000016D
:102300000101010101010000000000000000003097
:102310003000000000000000000080601804006031
:1023200018060100000000E010080810E000000F8F
:10233000102020100F00001010F8000000000020F6
:10234000203F20200000007008080888700000303E
:1023500028242221300000300888884830000018E6
:10236000202020110E000000C02010F800000007FF
:102370000424243F240000F8088888080800001975
:10238000212020110E0000E0108888180000000FA6
:10239000112020110E0000380808C838080000007D
:1023A000003F000000000070880808887000001CD2
:1023B000222121221C0000E010080810E00000008B
:1023C000312222110F00000000C0C00000000000F8
:1023D000003030000000000000800000000000001D
:1023E0008060000000000000804020100800000114
:1023F00002040810200040404040404040000404D7
:1024000004040404040000081020408000000020A0
:10241000100804020100007048080808F0000000DD
:10242000003036010000C030C828E810E00007186E
:10243000272423140B000000C038E0000000203CDB
:1024400023020227382008F8888888700000203F7F
:10245000202020110E00C030080808083800071896
:1024600020202010080008F808080810E000203F8D
:10247000202020100F0008F88888E8081000203F6E
:1024800020202320180008F88888E8081000203F42
:10249000200003000000C0300808083800000718BA
:1024A0002020221E020008F808000008F808203F3B
:1024B000210101213F20000808F808080000002041
:1024C000203F2020000000000808F8080800C08015
:1024D00080807F00000008F888C028180800203F8E
:1024E00020012638200008F8080000000000203FE6
:1024F00020202020300008F8F800F8F80800203FDD
:10250000003F003F200008F830C00008F808203FD6
:10251000200007183F00E01008080810E0000F1026
:10252000202020100F0008F808080808F000203FBD
:10253000210101010000E01008080810E0000F1858
:10254000242438504F0008F8888888887000203F7D
:102550002000030C3020007088080808380000387C
:10256000202121221C00180808F808081800000083
:10257000203F2000000008F808000008F808001FAD
:10258000202020201F000878880000C8380800009C
:1025900007380E010000F80800F80008F800033CB6
:1025A0000700073C0300081868808068180820307E
:1025B0002C03032C30200838C800C838080000005D
:1025C000203F2000000010080808C8380800203804
:1025D000262120201800000000FE02020200000058
:1025E000007F40404000000C30C0000000000000B0
:1025F00000010638C00000020202FE000000004098
:1026000040407F00000000000402020204000000BD
:1026100000000000000000000000000000008080BA
:1026200080808080808000020204000000000000A2
:102630000000000000000000808080800000001981
:10264000242222223F2008F8008080000000003F62
:10265000112020110E000000008080800000000E7C
:10266000112020201100000000808088F800000E5A
:10267000112020103F200000808080800000001F7B
:10268000222222221300008080F0888888180020EF
:10269000203F202000000000808080808000006BB0
:1026A00094949493600008F8008080800000203F9C
:1026B000210000203F2000809898000000000020AA
:1026C000203F20200000000000809898000000C0FB
:1026D0008080807F000008F8000080808000203F1C
:1026E00024022D302000000808F80000000000201F
:1026F000203F202000008080808080808000203F5C
:1027000020003F20003F8080008080800000203F2C
:10271000210000203F200000808080800000001FFA
:10272000202020201F00808000808000000080FF8B
:10273000A12020110E000000008080808000000E8B
:10274000112020A0FF8080808000808080002020D9
:102750003F21200001000000808080808000003345
:10276000242424241900008080E0808000000000E0
:10277000001F202000008080000000808000001FDB
:10278000202020103F208080800000808080000179
:102790000E300806010080800080008080800F30AD
:1027A0000C030C300F00008080008080800000202F
:1027B000312E0E312000808080000080808080815A
:1027C0008E701806010000808080808080000021CB
:1027D000302C2221300000000000807C020200002A
:1027E0000000003F404000000000FF00000000002B
:1027F0000000FF0000000002027C8000000000409A
:10280000403F000000000006010102020404000035
:102810000000000000000000382800080000002030
:1028200034000000242000086C2800083400002038
:10283000DC0400003420000801000000100000004B
:102840000000000000127A000300000000000000F9
:102850000F00000000000000000000000000000069
:0C2860000000000000000000000000006C
:04000005080000ED02
:00000001FF
