:020000040800F2
:1000000010050020010100083F1B00080519000829
:100010003D1B0008610800083922000800000000AC
:100020000000000000000000000000000B1E00089F
:100030002909000800000000091E0008D91E000858
:100040001B0100081B0100081B0100081B01000820
:100050001B0100081B0100081B0100081B01000810
:100060001B0100081B0100081B0100081B01000800
:100070001B0100081B0100081B0100081B010008F0
:100080001B0100081B0100081B0100081B010008E0
:100090001B0100081B0100081B0100081B010008D0
:1000A0001B0100081B0100081B0100081B010008C0
:1000B0001B0100081B0100081B0100081B010008B0
:1000C0001B0100081B0100081B0100081B010008A0
:1000D0001B0100081B0100081B0100081B01000890
:1000E0005D0900081B0100081B010008DFF80CD0A7
:1000F00000F080FB0048004785250008100500201F
:100100000648804706480047FEE7FEE7FEE7FEE7B1
:10011000FEE7FEE7FEE7FEE7FEE7FEE73B1F00081F
:10012000ED000008202A04DB203A21FA02F0002129
:10013000704721FA02F3D040C2F1200291400843F7
:1001400019467047D2B201E000F8012B491EFBD2DC
:1001500070470022F6E710B513460A4604461946D2
:10016000FFF7F0FF204610BDF0B480EA0102D40F83
:100170004200B2EB410F02D20246084611464A0045
:1001800042D0C30DDDB2C1F3C752AD1A202D35DA0E
:10019000C1F3160141F4000204B15242C5F1200638
:1001A00002FA06F12A411044B3EBD05F23D0C4B168
:1001B000012DA0EBC35009DCF0BC4FF0004202EA75
:1001C000C352DBB200F5000000F072BA400000F14B
:1001D000807000EBC350A0F1807040EAD1704900FC
:1001E00009E0490841EAC071A0EBC35000F50000E6
:1001F000400800EBC350F0BC00F051BA614201224C
:1002000002EB4101001BF6E7F0BC704781F00041B2
:10021000AAE780F00040A7E780EA010210B502F0EB
:100220000043400022D04A001FD0010E01EB1261B2
:10023000C0F35600C2F3560240F4000042F400023C
:10024000A0FB022000047F39140400D0401C50EAB7
:10025000124001D44000491EC2B20C0604EBD0107B
:10026000401C4008802A02D003E0002010BD20F08E
:100270000100002900DA0020184310BD2DE9FE4FCF
:10028000804681EA0300C00F0C46009021F0004137
:1002900023F00045B8EB0200A94105D240462146B3
:1002A00090461C460B46024623F00040104347D0C0
:1002B000270DC7F30A00C3F30A510290401A0190B8
:1002C00040286BDAC3F3130040F4801B0098924679
:1002D00020B10023D2EB030A63EB0B0B01985946C4
:1002E000C0F14002504600F0B9F906460D465046AE
:1002F0005946019A00F0C1F910EB08006141002451
:1003000087EA115284EAE7731A4340D0009A62B335
:10031000019A012A4FEA075215DC001B61EB02012A
:100320004FF0004202EA0752CDE90042001C41F5BD
:10033000801132462B4600F0F8F903B0BDE8F08F8B
:1003400040462146F9E7001B61EB0201001C41F524
:10035000801300185B412018A2F5001747EB03013A
:1003600040EAD570B6196D4111E06D084FEA3606C6
:1003700045EAC0754FEA0752001B61EB0201001C01
:1003800041F5801149084FEA3000001951413246C9
:100390002B4603B0BDE8F04F00F0B8B90098012239
:1003A00040000023D0EB020263EBE073009821468B
:1003B0004FEAE074B8EB000061EB0401E9E783F079
:1003C00000435BE781F0004158E72DE9FE4F81EAE9
:1003D000030404F0004421F0004100944FF0000BAE
:1003E00023F0004350EA01045ED052EA03045BD0DC
:1003F000C3F30A54C1F30A552C44A4F2F334019414
:10040000A0FB0254C1F3130141F48011C3F31303A1
:1004100043F4801301FB024400FB034E840A970A55
:1004200044EA815447EA8357A4FB076802958D0A82
:1004300005FB07854FEA932C04FB0C542705029D0E
:100440004FEA065847EA1637B5EB08056EEB070C7E
:10045000870E920E47EA811742EA8312A7FB020138
:10046000B6EB0B0164EB00042B0D43EA0C335E1872
:1004700044EB1C50DA465146E7FB0201C5F3130476
:100480004FEA0B3343EA14534FEA0432019C43EA28
:100490000603A4F10C040294009CCDE900B400F022
:1004A00044F903B0BDE8F08F00200146F9E72DE9DB
:1004B000F04D81EA030404F0004B21F0004514469E
:1004C0004FF0000A23F0004150EA050220D054EA20
:1004D00001021DD0C5F30A570246C5F31303C1F349
:1004E0001300C1F30A5640F4801543F48013A7EBC0
:1004F0000608101BD64608F2FD3873EB050002D340
:1005000008F1010801E092185B41B8F1000F03DA2D
:1005100000200146BDE8F08D00204FF48011064612
:1005200084460EE0171B73EB050705D3121B63EB24
:10053000050306434CEA010C49084FEA30009218C3
:100540005B4150EA0107EDD152EA030012D082EA82
:10055000040083EA0501084305D0101BAB4106D215
:100560000122002306E000224FF0004302E06FF07A
:10057000010253101AEB06004CEB085110EB0A0075
:1005800041EB0B01BDE8F04D00F0C0B8C10F80EAAF
:10059000E0700844CA079623002100F089B80EB520
:1005A000C10F80EAE0700844CA07002140F23343DB
:1005B0008DE80E000A460B4600F0B7F803B000BD08
:1005C00070B5C1F30A5201F000450024C1F31301D4
:1005D00040F2FF3341F480119A4201DA002070BDED
:1005E00040F233439A42A2F2334203DC5242FFF715
:1005F00099FD00E090402C43F1D0404270BD00F0E6
:10060000004230F000400AD0C10D01F56071C0F326
:10061000160042EA0151C20840071143704700200A
:100620000146704701F0004330B421F0004150EA28
:10063000010206D00A0DA2F56072C1F31301002A6F
:1006400002DC30BC00207047440F44EAC104C10002
:10065000E01830BC00EBC25000F021B8202A04DBC7
:10066000203A00FA02F1002070479140C2F12003C5
:1006700020FA03F3194390407047202A06DBCB177A
:10068000203A41FA02F043EAE07306E041FA02F34D
:10069000D040C2F12002914008431946704700291A
:1006A000A8BF7047401C490008BF20F001007047F8
:1006B00010B4B0FA80FC00FA0CF050EA010404BF58
:1006C00010BC704749B1CCF1200421FA04F411FAAE
:1006D0000CF118BF012121430843A3EB0C01CB1DF2
:1006E0004FEA00614FEA102042BF002010BC704763
:1006F00000EBC35010440029A4BF10BC7047401C3D
:10070000490008BF20F0010010BC704710B5141E4E
:1007100073F1000408DA401C41F1000192185B41BA
:100720001A4301D120F0010010BD2DE9F04D924691
:100730009B4611B1B1FA81F202E0B0FA80F22032A8
:100740009046FFF78BFF04460F4640EA0A0041EA55
:100750000B0153465A46084313D0114653EA010091
:1007600019D0C8F140025046FFF7DCFC05460E46A2
:10077000504659464246FFF771FF084305D0012015
:1007800004E020463946BDE8F08D0020054346EAE6
:10079000E0762C4337430A986305E40AA0EB08008F
:1007A0000022FD0A44EA47540A3002D500200146DF
:1007B000E9E7010510196941DDE9084500196941BA
:1007C000BDE8F04DA2E770B521F0004303430CD023
:1007D000C1F30A550024D5EB040564EB0403D617D6
:1007E000AD1AB34102DB0020014670BD201841EB79
:1007F000025170BD064C074D06E0E06840F0010371
:1008000094E8070098471034AC42F6D3FFF772FC27
:10081000C8270008E82700080E4810B50068406A9D
:1008200042F21071884213D90B48807801280FD109
:1008300001F06AF80021094800F0C2FF04210748CE
:1008400000F0BEFFBDE810400821044800F0B8BF2A
:1008500010BD00006C0000201000002024000020CB
:10086000FEE7000010B50C4C0628218912D2DFE803
:1008700000F005070D03090B052008E0022006E043
:10088000032004E0002002E0012000E0042000F04A
:1008900005F8207010BD00001000002070B50C4657
:1008A00001461F4D1F4E062923D2DFE801F0032E1B
:1008B0002318110A01F028F8286844630122102146
:1008C00013E001F021F8286844630122202117E099
:1008D00001F01AF828688463012220211BE001F04E
:1008E00013F82868846301220821304600F00DFACD
:1008F000022070BD01F008F82868C46301220821B5
:10090000304600F002FA012070BD00F0FDFF2868BB
:10091000C46301221021304600F0F7F9002070BDB9
:1009200024000020000801407047000010B509486D
:1009300000F084FD0021084800F0F4FE0421064880
:1009400000F0F0FE0821044800F0ECFEBDE8104085
:1009500000F0DABF6C0000202400002010B54FF436
:10096000806000F0D1F84FF4006000F0CDF8BDE8F1
:1009700010404FF4805000F0C7B872B6FEE7000098
:1009800070B5044600F0C6F90546601C02D0044864
:100990000078044400F0BEF9401BA042FAD370BDB9
:1009A000000000202DE9FF5FDFF850810146A8F12B
:1009B0000C0000250127504EDFF84491DFF844A1D8
:1009C0008378C2784478B1F5806F20D0B1F5006F9C
:1009D0004BD0B1F5805F63D1012B61D18346012AF1
:1009E000084675D001F02AFE8BF80100011BC8F8FB
:1009F0000400012973D0491D71D0A04204D0316890
:100A0000C1F82450FFF72EFF4FF4805046E0012B31
:100A100046D18346012A084613D001F00FFE8BF819
:100A20000100011BC8F80400012911D0491D0FD095
:100A3000A04203D031684D62FFF714FF4FF480608D
:100A40002CE001F0FBFD8BF801008BF80350F1E77F
:100A5000684601F0DBF99DE82E0089E80E00C9F830
:100A60000C508BF804702046E6E7012B18D1834622
:100A7000012A084616D001F0E1FD8BF80100011BA8
:100A8000C8F80400012914D0491D12D0A04203D097
:100A900031684D62FFF7E6FE4FF40060CAF80000CF
:100AA000BDE8FF9F01F0CAFD8BF801008BF80350F1
:100AB000EEE7684601F0AAF99DE82E0089E80E00ED
:100AC000C9F80C508BF804702046E3E700E006E01C
:100AD00001F0B4FD8BF801008BF803508FE76846F6
:100AE00001F094F99DE82E0089E80E00C9F80C5039
:100AF0008BF80470204685E76C0000201C00002065
:100B0000FC00002014040140044910B50A680242A8
:100B100002D00860FFF746FF10BD0000140401403A
:100B20002DE9F84FDFF8B8910024A9F1040B234612
:100B30000F2709F1040AABF1040EC9E00125A54015
:100B40002A40AA427DD1674ED1F804C0ACEB06081A
:100B5000B44532D014DCBCF1030F3AD009DCBCF14F
:100B6000000F2AD0BCF1010F1CD0BCF1020F31D113
:100B70001DE0BCF1110F17D0BCF1120F2AD119E002
:100B8000B8F5881F19D006DCB8F5803F15D0B8F548
:100B9000801F1FD111E0B8F5001F0ED0B8F5041F5B
:100BA00018D10AE0CB6815E0CB681B1D12E0CB68BA
:100BB00008330FE0CB680C330CE08B682BB1012BB2
:100BC0004FF0080303D0456104E0042302E005610F
:100BD00000E00023FF2A01D8064601E000F10406E8
:100BE0004FEA840501D9A5F12005D6F8008007FA5F
:100BF00005FC28EA0C0803FA05F548EA0508C6F8DA
:100C000000804D68ED0062D5374DAE6946F00106B3
:100C1000AE61AD6924F0030605F001050095334D82
:100C200006EB050CDCF80850A607360F07FA06F8A5
:100C300025EA0805DFF8B880404503D14FF00008E9
:100C400017E044E0DFF8AC80404502D14FF00108E6
:100C50000FE0DFF8A480404502D14FF0020808E021
:100C6000DFF89880404502D14FF0030801E04FF0D3
:100C7000040808FA06F848EA0508CCF808804D6828
:100C8000D9F80060ED024D4601D5164300E09643C9
:100C90002E604D68DAF80060AD02554601D5164366
:100CA00000E096432E604D68DBF80060AD035D46C2
:100CB00001D5164300E096432E604D68DEF80060D3
:100CC000ED03754601D5164300E096432E60641C83
:100CD0000D682A46E5407FF431AFBDE8F88F00008B
:100CE0000804014000001110001002400000014003
:100CF00000080140000C01400010014000140140B8
:100D00008068084000D0012070470AB10161704737
:100D10000904FBE7014880687047000000000020DC
:100D20000248816802781144816070470000002009
:100D3000074810B5016841F010010160032000F080
:100D400075F80F2000F006F800F024F8002010BD20
:100D50000020024070B50D4D04464FF47A7128789A
:100D6000B1FBF0F00A490968B1FBF0F000F0DCFAE1
:100D700048B9102C07D200222146501E00F036F848
:100D800000206C6070BD012070BD000000000020DC
:100D90000C0000200C4808B5816941F00101816117
:100DA000816901F001010091C16941F08051C16187
:100DB000C06900F0805000900448416821F0E06173
:100DC00041F00071416008BD001002400000014088
:100DD000002809DB00F01F0201219140400980003A
:100DE00000F1E020C0F8001170470000F0B40E4B95
:100DF0001B680C46C3F30223C3F10705042D00D979
:100E00000425191D072901D2002300E0DB1E01265D
:100E100006FA05F1491E214099409E40761E164073
:100E20003143F0BC01F01DBA0CED00E0064900F0C2
:100E3000070208684FF6FF03184040EA0220034A01
:100E400010430860704700000CED00E00000FA0558
:100E50002DE9F0470F46050061D0434E306800F0A1
:100E60000700B84209D2306820F0070038433060EC
:100E7000306800F00700B84251D128683B4C810728
:100E800012D5400703D5606840F4E06060602878C0
:100E9000000703D5606840F4605060606068A9682E
:100EA00020F0F000084360602878C00728D0686808
:100EB000012810D02168022810D0890700292EDAD5
:100EC000616821F0030101436160FFF723FF804661
:100ED00041F288390DE021688903EFE78901EDE7E8
:100EE000FFF718FFA0EB0801494502D90320BDE830
:100EF000F0876068696800F00C00B0EB810FEFD1FB
:100F0000306800F00700B8420BD9306820F00700C5
:100F100038433060306800F00700B84201D001204B
:100F2000E5E72878400705D56068E96820F4E060C7
:100F3000084360602878000706D56068296920F4B6
:100F4000605040EAC100606000F038F86168084A0B
:100F5000C1F30311515CC8400649086006480068A7
:100F6000FFF7F8FE0020C2E7002002400010024018
:100F7000122700080C000020040000200448054946
:100F800000684968044AC1F30221515CC8407047B7
:100F90000C000020001002402227000804480549E8
:100FA00000684968044AC1F3C221515CC8407047D7
:100FB0000C00002000100240222700080E4A516851
:100FC0000E4801F00C03042B11D0082B0FD10C4854
:100FD000C1F38343C903C05C0AD55168084AC1F311
:100FE0004041921E515C054A5043B0FBF1F07047FE
:100FF00004494843704700000010024000127A0084
:101000000227000800093D002DE9F84F040070D0C8
:101010002078C04DC00749D06868C0F3810001281E
:1010200007D06868C0F38100022809D16868C0034E
:1010300006D52868800339D560680028E7D035E0F8
:101040006068B0F5803F0BD010B1B0F5A02F11D083
:10105000286820F480302860286820F4802002E08E
:10106000286840F480302860606890B1FFF752FE35
:1010700006460AE0286840F480202860F0E700BFB8
:10108000FFF748FE801B642873D828688003F7D5D3
:101090000CE0FFF73FFE064605E000BFFFF73AFE13
:1010A000801B6428F0D828688003F7D420789A4EF3
:1010B00080074FF001094FF0000839D5686810F03B
:1010C0000C0F07D06868C0F38100022809D1686856
:1010D000C00306D42868800714D52069012808D1E8
:1010E00010E02069B0B1C6F80090FFF713FE074684
:1010F00005E00AE1FFF70EFEC01B0228C4D82868ED
:101100008007F7D52868616920F0F80040EAC1003F
:1011100028600DE0C6F80080FFF7FCFD074604E0FC
:10112000FFF7F8FDC01B022823D828688007F7D4F2
:10113000207800072CD57948A169D9B1C0F8009072
:10114000FFF7E8FD074604E0FFF7E4FDC01B0228B7
:101150000FD8686A8007F7D571484FF4FA510068D4
:10116000B0FBF1F0009000BF0098411E0091FAD250
:101170000EE080E0C0F80080FFF7CCFD074604E0F9
:10118000FFF7C8FDC01B022875D8686A8007F7D42E
:101190002078400760D5E8690027C00008D4E869D6
:1011A00040F08050E861E869012700F0805000902D
:1011B0005C480168C90513D40168834641F4807115
:1011C0000160FFF7A7FD824606E000BFFFF7A2FD22
:1011D000A0EB0A0064284ED8DBF80000C005F5D566
:1011E000E06801280AD008B1052813D0286A20F049
:1011F00001002862286A20F0040002E0286A40F01A
:1012000001002862E06841F2883B98B1FFF782FD57
:1012100082460BE0286A40F004002862EEE700BF37
:10122000FFF778FDA0EB0A0159455AD8286A8007D4
:10123000F6D50CE0FFF76EFD824605E0FFF76AFD8C
:10124000A0EB0A0159454CD8286A8007F6D41FB193
:10125000E86920F08050E861E06988B36968C1F30B
:101260008101022944D00228C6F8608004D0FFF72B
:1012700051FD044638E034E0FFF74CFD074604E03A
:10128000FFF748FDC01B02282BD828688001F7D43F
:10129000206AB0F5803F05D16868A16820F400306D
:1012A00008436860D4E908010843696821F47411AF
:1012B00008436860C6F86090FFF72CFD044606E01E
:1012C00025E000BFFFF726FD001B022809D828688B
:1012D0008001F7D51BE000BFFFF71CFD001B0228B3
:1012E00002D90320BDE8F88F28688001F4D40EE00D
:1012F0000128F7D06868226A00F48031914204D155
:10130000616A00F47010884201D00120EAE70020F1
:10131000E8E7000000100240000042428004424220
:101320000C0000200070004010B5401EB0F1807F1E
:1013300001D3012010BD4FF0E02460610F21601740
:1013400000F08FFF0020A06107202061002010BD69
:1013500070B590F83C20012A26D0012480F83C404A
:10136000022280F83D2003685A689D6822F07006CA
:101370000A6832435A600D4B02689A4208D0B2F1B3
:10138000804F05D00A4B9A4202D00A4B9A4204D1B0
:10139000496825F080031943916080F83D400021A1
:1013A00080F83C10084670BD022070BD002C014042
:1013B000000400400008004010B5040003D094F879
:1013C0003D0010B107E0012010BD002084F83C0072
:1013D000204600F01FF8022084F83D00211D2068FF
:1013E00000F0ACFD012084F8460084F83E0084F84B
:1013F0003F0084F8400084F8410084F8420084F8FB
:10140000430084F8440084F8450084F83D0000203F
:1014100010BD000008B500680649884208D106489A
:10142000C16941F00201C161C06900F00200009091
:1014300008BD0000000400400010024090F83D107C
:10144000012901D001207047022180F83D10006879
:101450000B49884208D0B0F1804F05D00949884235
:1014600002D00949884204D1816801F007010629A8
:1014700003D0016841F001010160002070470000C5
:10148000002C0140000400400008004001680A6A86
:1014900041F211131A4207D10A6A9B101A4203D172
:1014A0000A6822F001020A60012180F83D10002044
:1014B000704770B5044690F83C000025012817D00D
:1014C000012684F83C60022084F83D002068826890
:1014D00022F0770222F47F4282600868502838D0D8
:1014E0000DDC20284FD005DC90B3102811D14AE044
:1014F000022070BD302846D040280AD13BE0602849
:101500002FD070280DD0B0F5805F03D0B0F5005F0C
:1015100012D0012584F83D60002084F83C00284664
:1015200070BDCB68D1E90121206800F050FD206832
:10153000816841F0770109E0CB68D1E90121206899
:1015400000F045FD2068816841F480418160E1E759
:1015500019E0CA684968206800F0EEFD5021206853
:1015600006E0CA684968206800F0F7FD602120683D
:1015700000F037FDCEE7CA684968206800F0DCFD5E
:1015800040212068F4E7226801461046F0E7000099
:1015900000B585B00021009101910291039100688E
:1015A000B0F1804F12D10A48816941F00401816194
:1015B0008069694600F00400049007200090022032
:1015C0000190032003900348FFF7AAFA05B000BD7D
:1015D000001002400008014070B5044690F83C003D
:1015E00000260D4601280FD0012084F83C006AB186
:1015F000042A1DD0082A2FD00C2A3FD00126002013
:1016000084F83C00304670BD022070BD206800F0B8
:10161000F1FC2068816941F00801816120688169DD
:1016200021F004018161206881692A69114311E078
:10163000206800F007FD2068816941F40061816144
:101640002068816921F480618161206881692A694B
:1016500041EA02218161D2E7206800F01FFD206885
:10166000C16941F00801C1612068C16921F004012C
:10167000C1612068C1692A69114311E0206800F046
:1016800039FD2068C16941F40061C1612068C16908
:1016900021F48061C1612068C1692A6941EA02219F
:1016A000C161ACE710B5040003D094F83D0010B15F
:1016B00007E0012010BD002084F83C00204600F027
:1016C0001FF8022084F83D00211D206800F036FC40
:1016D000012084F8460084F83E0084F83F0084F836
:1016E000400084F8410084F8420084F8430084F804
:1016F000440084F8450084F83D00002010BD00003F
:1017000008B50068B0F1804F08D10548C16941F0C3
:101710000101C161C06900F00100009008BD000036
:101720000010024010B50446022249B104290ED02F
:10173000082913D094F84100012816D0012010BDCB
:1017400094F83E000128F9D184F83E200FE094F887
:101750003F000128F2D184F83F2008E094F84000CF
:101760000128EBD184F8402001E084F841200122D7
:10177000206800F01FFC0F492068884203D1426CAA
:1017800042F4004242642068884208D0B0F1804FA1
:1017900005D00949884202D00849884204D18168AD
:1017A00001F00701062903D0016841F00101016041
:1017B000002010BD002C0140000400400008004043
:1017C00030B504460D460068002200F0F3FB174BCD
:1017D00041F2111120688A10984209D1036A0B4224
:1017E00006D1036A134203D1436C23F400434364DC
:1017F0002068036A0B4206D1016A114203D10168D5
:1018000021F00101016001203DB1042D08D0082D17
:1018100009D084F84100002030BD84F83E00FAE78A
:1018200084F83F00F7E784F84000F4E7002C01401B
:1018300070B5040004D094F84100002510B106E012
:10184000012070BD84F84050204600F023F8242089
:1018500084F841002068C16821F40051C16020462D
:1018600000F08EFC2068016921F49041016120683C
:10187000416921F02A0141612068C16841F40051A9
:10188000C1606564202084F8410084F842006563EB
:10189000002070BD30B585B00024009401940294FE
:1018A000039400681449884224D11448816941F4A2
:1018B00080418161816901F480410491816941F035
:1018C0000401816180690E4D00F0040004904FF422
:1018D0000070009002200190032003906946284682
:1018E000FFF71EF92815CDE9000469462846029441
:1018F000FFF716F905B030BD003801400010024076
:1019000000080140FEE700000D4910B50A680020FC
:1019100050630A6890630968C8630A4C024608214C
:101920002046FFF7F2F9002210212046FFF7EDF9DB
:1019300020460022BDE810402021FFF7E6B9000054
:1019400024000020000801402DE9F04186B0002469
:101950002A480094019402940394816941F0200183
:101960008161816901F020010491816941F00401E4
:101970008161816901F004010491816941F00801EC
:10198000816180691E4F00F0080004900022382118
:101990003846FFF7BAF9DFF86C804FF44076012241
:1019A00031464046FFF7B1F93820009001AA0120E6
:1019B000032582E8310069463846FFF7B1F84FF455
:1019C000E05000901048CDE9010469464046FFF719
:1019D000A7F801AA1120009682E831006946404626
:1019E000FFF79EF8002201212820FFF7FFF92820A9
:1019F000FFF7EEF906B0BDE8F081000000100240EC
:101A000000080140000C01400000311010B58AB000
:101A1000002407941C2168460894FEF79AFB1E4890
:101A20004FF0804101600221C0E9011440F2E7312A
:101A3000C0E903148461FFF735FE08B1FEF79DFF8E
:101A4000079407A914480894FFF782FC08B1FEF731
:101A500094FF6020CDE900040294002269460E48FC
:101A60000494FFF7B9FD08B1FEF787FF0422694629
:101A70000948FFF7B1FD08B1FEF77FFF082269466C
:101A80000548FFF7A9FD08B1FEF777FF0248FFF709
:101A90007FFD0AB010BD00002400002010B586B004
:101AA0000024174800940194029403940494134969
:101AB0000594016040F2CF21C0E901144FF6FF7197
:101AC000C0E903148461FFF777FC08B1FEF755FF06
:101AD0004FF48050009069460948FFF7EAFC08B1CE
:101AE000FEF74BFF049404A905480594FFF730FC6A
:101AF000002801D0FEF741FF06B010BD00040040F1
:101B00006C0000200C4810B50A4901604FF4E13127
:101B10004160002181600822C160C0E90412816136
:101B2000C161FFF785FE002803D0BDE81040FEF735
:101B300024BF10BD00380140B4000020FEE7FEE7DE
:101B400070B500240021204600F0A4F800250020F4
:101B500000F0D3F86D1CEDB2802DF8D3641CE4B214
:101B6000082CEFD370BD10B5012000F0A5F8BDE83A
:101B70001040012000F0A8B870B50024064680256A
:101B800025FA04F0304000D0012000F09DF801203B
:101B900000F092F8002000F08FF8641CE4B2082CEA
:101BA000EED3012000F088F8BDE87040002000F07E
:101BB00083B810B5012000F087F8012000F07CF810
:101BC000002000F081F8BDE81040002000F074B85B
:101BD00010B5002000F078F8012000F06DF8BDE8A5
:101BE0001040012000F070B810B500204FF47A7258
:101BF0000021491C9142FCD3401C9042F8D3FFF7CE
:101C0000B2FFAE2000F068F8D52000F065F8802023
:101C100000F062F8A82000F05FF83F2000F05CF8C8
:101C2000D32000F059F8002000F056F8402000F0D2
:101C300053F8A12000F050F8C82000F04DF8DA2049
:101C400000F04AF8122000F047F8812000F044F834
:101C5000CF2000F041F8D92000F03EF8F12000F04C
:101C60003BF8DB2000F038F8302000F035F8A420F5
:101C700000F032F8A62000F02FF88D2000F02CF8AC
:101C8000142000F029F8AF2000F026F8BDE810403D
:101C9000FFF756BF10B50C4640F0B00000F01CF83E
:101CA000102040EA141000F017F804F00F00BDE80F
:101CB000104000F011B80000C2B24FF4807101482A
:101CC000FFF723B8000C0140C2B24FF40071014885
:101CD000FFF71BB8000C014010B50446FFF769FF81
:101CE0007820FFF749FF0020FFF746FF2046FFF767
:101CF00043FFBDE81040FFF76BBF10B50446FFF788
:101D000058FF7820FFF738FF4020FFF735FF2046C7
:101D1000FFF732FFBDE81040FFF75ABF2DE9F05F33
:101D2000002741F270763C210520FEF7B7FDDFF871
:101D3000D080344C4FF0000988F800002168C1F8C9
:101D40002490206842F21075416AA942FCD33C21DC
:101D50000120FEF7A3FD88F800002168C1F8249057
:101D60002068416AA942FCD33C210020FEF796FD81
:101D700088F800002168C246C846C1F8249020684F
:101D8000416AA942FCD3FFF7BFFD4FF4FA70FEF79A
:101D9000F7FDC146D04600254FF0060A4FF4487BB8
:101DA00097FBFAF10AFB1170C0B23C21FEF776FDF9
:101DB00088F800002168C1F824902068416AB14287
:101DC000FCD37F1C5E4501DDA6F516766D1C0A2D41
:101DD000E6DBFFF799FD012188F8021088F803106F
:101DE000032188F800100748FFF750FB4720606088
:101DF0000448FFF7E1FABDE8F05F0248FFF71EBBB9
:101E0000100000206C000020704770472DE9E0436F
:101E100081461D4800688046456ACCB12846FEF7D9
:101E2000BEFB4FF03332194BFEF7CFFA07460E4692
:101E30002046FEF7B4FB4FF06632154BFEF7C5FAAD
:101E40003A463346FEF71AFAFEF7BAFB064600E0BA
:101E50002E463046FEF7A3FB0E4A0F4BFEF7B5FAAF
:101E600002460B460D480E49FEF721FBFEF7DAFB52
:101E70000022C8F82420C9F80050C9E90164C9F853
:101E80000C00BDE8E08300006C0000203333D33F3A
:101E90006666E63F8DEDB5A0F7C6B03E18866118C0
:101EA0008661983F094810B5406800F087FB0849F3
:101EB0000968496A884208D8064C2079012804D16B
:101EC0006078FEF7CFFC0020207110BDFC000020E0
:101ED0006C00002010000020FEF722BF30B58FB04C
:101EE00028216846FEF735F914210AA8FEF731F9D2
:101EF00001210804CDE90010002402940225049178
:101F0000CDE907504FF4E01009906846FFF77CF8E0
:101F100008B172B6FEE70F20CDE90A054FF48060E4
:101F2000CDE90C4002210AA80E94FEF791FF00288B
:101F300001D072B6FEE70FB030BD7047F0B5026851
:101F4000194B1A4C1A4D4FF08047984205D0B842B1
:101F500003D0A04201D0A84203D122F070064A6803
:101F60003243984205D0B84203D0A04201D0A842E3
:101F700003D122F44074CA6822434C6922F08002E3
:101F8000224302608A68C2620A688262984201D172
:101F900009690163012141610169C90703D0016930
:101FA00021F001010161F0BD002C0140000400405E
:101FB0000008004010B501F01F030121046A994098
:101FC0008C430462016A9A401143016210BD10B54E
:101FD000846842EA032224F47F440A432243826055
:101FE00010BD826822F070020A4342F0070181604E
:101FF0007047000030B5036A026A22F001020262F3
:102000004268846924F073050C682C4323F00205B0
:102010008B682B430A4DA8420BD123F00805CB68EF
:1020200022F440722B434D6923F0040315438A695F
:102030002A434260846149684163036230BD000005
:10204000002C014030B5026A036A23F010030362DA
:10205000436884690D6824F4E64444EA05248D68E5
:1020600022F0200242EA05120B4DA8420ED1CD68A3
:1020700022F0800242EA05124D6923F4406343EAEC
:1020800085038D6922F0400243EA85034360846141
:1020900049688163026230BD002C014030B5036A9B
:1020A000026A22F4807202624268C46923F40073F7
:1020B00024F073050C682C438D6843EA05230C4D0E
:1020C000A8420ED1CD6823F4006343EA05234D698D
:1020D00022F4405242EA05128D6923F4806342EAF9
:1020E00005124260C4614968C163036230BD0000EB
:1020F000002C014030B5046A026A22F48052026268
:102100004268C3690D6823F4E64343EA05238D68FA
:1021100024F4005444EA0534064DA84204D14D6924
:1021200022F4804242EA85124260C3614968016438
:10213000046230BD002C014010B5036A046A24F02B
:1021400001040462846924F0F00444EA021423F0D8
:102150000A020A438461026210BD10B5036A046A70
:1021600024F010040462846923F0A00324F4704472
:1021700044EA023243EA01118261016210BD0000AB
:1021800070B5044600680169E26821F440511143CA
:1021900001612169A0680843616908432168CA6830
:1021A00041F20C639A430243CA6020684169A26904
:1021B00021F44071114341611E492068884202D1D7
:1021C000FEF7ECFE01E0FEF7D9FE00EBC00101EBEB
:1021D0000012606864218000B2FBF0F3B3FBF1F3FE
:1021E0006FF018067343B2FBF0F5B2FBF0F605EBA7
:1021F0008305322303EB0515B5FBF1F5B6FBF1F6CC
:1022000005F0F00505EB0615B2FBF0F6B2FBF0F0B9
:10221000B0FBF1F06FF01802504306EB800003EBC7
:102220000010B0FBF1F0216800F00F002844886036
:1022300070BD000000380140FEE7490050EAC120AF
:1022400018BF04204A0D18BF40F0010040F2FF7291
:10225000B2EB515F08BF40F00200012808BF052023
:1022600070470907090E002804DB00F1E02080F820
:102270000014704700F00F0000F1E02080F8141DFA
:1022800070472DE9F0414F1E00EBC7010446D1E92C
:10229000000115461E4637F006020DD02A46334689
:1022A000FEF793F87F1E04EBC703D3E90023FDF785
:1022B000E5FF37F00602F1D1022F25D0042F13D00D
:1022C000062F18BFBDE8F0812A463346FEF77DF899
:1022D000D4E90A23FDF7D2FF2A463346FEF775F804
:1022E000D4E90823FDF7CAFF2A463346FEF76DF806
:1022F000D4E90623FDF7C2FF2A463346FEF765F808
:10230000D4E90423FDF7BAFF2A463346FEF75DF809
:10231000D4E90223FDF7B2FF2A463346FEF755F80B
:10232000D4E90023BDE8F041FDF7A8BF0122FEF784
:102330004ABA0000024A00201107FEF744BA000022
:1023400001FDFFFF02E008C8121F08C1002AFAD1F0
:1023500070477047002001E001C1121F002AFBD125
:10236000704700002DE9F84F04460D4621F000406B
:1023700000917349814211DC7249884201DC06D127
:102380002CB120462946BDE8F84FFFF7CFBF6E4875
:10239000002DCCBF6D496E49BDE8F88F6D49814273
:1023A00011DD6D498142D8BF4FF0FF366DDD20460B
:1023B0002946FFF742FF042808BFFFF7BBFF20466E
:1023C0002946BDE8F88F6549654F25F000458142F3
:1023D00033DD6449814219DD002632464FF08043E7
:1023E00020462946FDF74AFF80468A4601222046BC
:1023F0002946FEF7E8F900223B46FDF7E0FF42469A
:102400005346FEF754F804460D463EE001260022EE
:10241000BA463B4620462946FDF730FF80460F4628
:102420000022534620462946FDF7C9FF42463B4657
:10243000FEF73DF804460D4627E04B4981421BDD7F
:10244000DFF828A102260022534620462946FDF740
:10245000BCFF00223B46FDF711FF80460F460022DD
:10246000534620462946FDF7AAFF42463B46FEF763
:102470001EF804460D4608E0032622462B4600209F
:102480003B49FEF714F804460D4622462B461046FB
:102490001946FDF79AFF8B46824602460B46FDF72A
:1024A00094FF07460246334888460B460621784487
:1024B000FFF7E7FE52465B46FDF787FF82462E4850
:1024C0008B463A46434605217844FFF7DAFE3A4602
:1024D0004346FDF77AFF02460B46002E504659460A
:1024E0000CDAFDF7CBFE22462B46FDF76EFF01B05E
:1024F00022462B46BDE8F04FFDF764BFFDF7BEFE58
:1025000022462B46FDF761FF1C4A7A4402EBC603C4
:10251000D3E90023FDF753FF22462B46FDF74FFF7B
:10252000174A7A4402EBC603D3E90023FDF74AFFBA
:10253000009A002AB8BF81F00041BDE8F88F000082
:10254000000010440000F07F182D4454FB21F93F97
:10255000FB21F9BF0000DC3F0000203E0000F33FFC
:102560000000F03F0000E63F008003400000F83F1D
:102570000000F0BFE6020000A402000042020000DA
:102580000A020000FEF7D4FBFFF7A8FCFFF7DCF916
:10259000FFF73CFAFFF782FAFFF7B4FA4FF47A70CC
:1025A000FEF7EEF9FFF720FBFEF7C0F9FFF7B6FBE9
:1025B000FFF778FCFEF730F9FAE7000070B5054642
:1025C000FDF7EDFF02460B4615481649FDF76FFF74
:1025D000FFF7C8FE0022144BFDF7F7FE134A144B19
:1025E000FDF765FFFEF71EF8124E0446B04214DAFE
:1025F0002846FDF7CBFF054621463046FDF706FE8F
:102600002946FDF709FEFDF7FAFF00220A4BFDF708
:102610004EFFBDE87040FDF7D3BF002070BD000045
:1026200069C6A2E9ECC26E40008066406E861BF06F
:10263000F92109400000F04100004E402DE9F04131
:102640004FF48067BE0075102C4CB8421BD1294650
:102650002046FEF755FB28B931462046FEF750FBD1
:1026600001280ED029462046FEF74AFB012806D154
:1026700031462046FEF744FB002800D10320BDE888
:10268000F0810020FBE7A84217D139462046FEF72B
:1026900037FB012804D131462046FEF731FB50B10B
:1026A00039462046FEF72CFB0028E8D1314620466B
:1026B000FEF726FBE3E70420E1E7B0421AD13946F2
:1026C0002046FEF71DFB28B929462046FEF718FBD9
:1026D00001280DD039462046FEF712FB0128CED145
:1026E00029462046FEF70CFB0028C8D10520C6E786
:1026F0000220C4E7BDE8F041A0E70000000C014063
:10270000010202030405060708090A0B0C0D0E0F4F
:102710001010000000000000000001020304060782
:10272000080900000000010203040000000000008E
:102730004FBB610567ACDD3F182D4454FB21E93FD9
:102740009BF681D20B73EF3F182D4454FB21F93FC8
:10275000E2652F227F2B7A3C075C143326A6813C4E
:10276000BDCBF07A8807703C075C143326A6913CF9
:10277000C4EB98999999C9BF711623FEC671BCBF65
:102780006D9A74AFF2B0B3BF9AFDDE522DDEADBFCD
:102790002F6C6A2C44B4A2BF0D5555555555D53FE5
:1027A000FF8300922449C23F6E204CC5CD45B73F00
:1027B000513DD0A0660DB13FEB0D76244B7BA93F78
:1027C00011DA22E33AAD903FE8270008000000202C
:1027D00024000000442300080C28000824000020E6
:1027E000EC04000054230008010000001000000069
:1027F0000000000000127A00030300000000030341
:0C28000064000000000000000000000068
:04000005080000ED02
:00000001FF
