:020000040800F2
:100000001005002001010008D7190008A1170008F9
:10001000D5190008EF040008DD20000800000000EA
:10002000000000000000000000000000231D000888
:10003000A906000800000000211D0008711D00082D
:100040001B0100081B0100081B0100081B01000820
:100050001B0100081B0100081B0100081B01000810
:100060001B0100081B0100081B0100081B01000800
:100070001B0100081B0100081B0100081B010008F0
:100080001B0100081B0100081B0100081B010008E0
:100090001B0100081B0100081B0100081B010008D0
:1000A0001B0100081B0100081B0100081B010008C0
:1000B0001B010008D51D00081B0100081B010008DA
:1000C0001B0100081B0100081B0100081B010008A0
:1000D0001B0100081B0100081B0100081B01000890
:1000E000E90600081B0100081B010008DFF80CD01E
:1000F00000F0DCF9004800471D2100081005002031
:100100000648804706480047FEE7FEE7FEE7FEE7B1
:10011000FEE7FEE7FEE7FEE7FEE7FEE7D31D000889
:10012000ED000008202A04DB203A21FA02F0002129
:10013000704721FA02F3D040C2F1200291400843F7
:1001400019467047D2B201E000F8012B491EFBD2DC
:1001500070470022F6E710B513460A4604461946D2
:10016000FFF7F0FF204610BD2DE9FE4F81EA0304A2
:1001700004F0004421F0004100944FF0000B23F004
:10018000004350EA01045ED052EA03045BD0C3F39B
:100190000A54C1F30A552C44A4F2F3340194A0FB91
:1001A0000254C1F3130141F48011C3F3130343F468
:1001B000801301FB024400FB034E840A970A44EAC1
:1001C000815447EA8357A4FB076802958D0A05FB13
:1001D00007854FEA932C04FB0C542705029D4FEA38
:1001E000065847EA1637B5EB08056EEB070C870E85
:1001F000920E47EA811742EA8312A7FB0201B6EB8F
:100200000B0164EB00042B0D43EA0C335E1844EB46
:100210001C50DA465146E7FB0201C5F313044FEACE
:100220000B3343EA14534FEA0432019C43EA0603BA
:10023000A4F10C040294009CCDE900B400F0E8F8AD
:1002400003B0BDE8F08F00200146F9E72DE9F04D3D
:1002500081EA030404F0004B21F0004514464FF0FE
:10026000000A23F0004150EA050220D054EA0102BE
:100270001DD0C5F30A570246C5F31303C1F313009B
:10028000C1F30A5640F4801543F48013A7EB060827
:10029000101BD64608F2FD3873EB050002D308F1B7
:1002A000010801E092185B41B8F1000F03DA002069
:1002B0000146BDE8F08D00204FF4801106468446CB
:1002C0000EE0171B73EB050705D3121B63EB050349
:1002D00006434CEA010C49084FEA300092185B4192
:1002E00050EA0107EDD152EA030012D082EA04007D
:1002F00083EA0501084305D0101BAB4106D2012259
:10030000002306E000224FF0004302E06FF00102FC
:1003100053101AEB06004CEB085110EB0A0041EBAE
:100320000B01BDE8F04D00F064B80EB5C10F80EAD6
:10033000E0700844CA07002140F233438DE80E0004
:100340000A460B4600F064F803B000BD01F000431C
:1003500030B421F0004150EA010206D00A0DA2F5A6
:100360006072C1F31301002A02DC30BC0020704728
:10037000440F44EAC104C100E01830BC00EBC25095
:10038000AFF300800029A8BF7047401C490008BF98
:1003900020F00100704710B4B0FA80FC00FA0CF0B5
:1003A00050EA010404BF10BC704749B1CCF12004ED
:1003B00021FA04F411FA0CF118BF0121214308437A
:1003C000A3EB0C01CB1D4FEA00614FEA102042BFA6
:1003D000002010BC704700EBC35010440029A4BF9C
:1003E00010BC7047401C490008BF20F0010010BC41
:1003F000704710B5141E73F1000408DA401C41F177
:10040000000192185B411A4301D120F0010010BD98
:100410002DE9F04D92469B4611B1B1FA81F202E00E
:10042000B0FA80F22032904600F052F804460F46AF
:1004300040EA0A0041EA0B0153465A46084313D0EA
:10044000114653EA010019D0C8F140025046FFF7A7
:1004500069FE05460E4650465946424600F038F8B9
:10046000084305D0012004E020463946BDE8F08D60
:100470000020054346EAE0762C4337430A9863059B
:10048000E40AA0EB08000022FD0A44EA47540A30BF
:1004900002D500200146E9E7010510196941DDE9AF
:1004A000084500196941BDE8F04DA2E7064C074D2B
:1004B00006E0E06840F0010394E807009847103434
:1004C000AC42F6D3FFF716FE7827000898270008FD
:1004D000202A04DB203A00FA02F100207047914004
:1004E000C2F1200320FA03F3194390407047FEE75E
:1004F00070B50C4601461F4D1F4E062923D2DFE87A
:1005000001F0032E2318110A01F04CF92868446306
:100510000122102113E001F045F92868446301220B
:10052000202117E001F03EF9286884630122202190
:100530001BE001F037F92868846301220821304666
:1005400000F0BFFA022070BD01F02CF92868C463E6
:1005500001220821304600F0B4FA012070BD01F0FC
:1005600021F92868C46301221021304600F0A9FA5D
:10057000002070BD380000200008014001210A4A17
:10058000062805D2DFE800F0030D07050B091170FE
:1005900070475170704791707047D17070471171FA
:1005A0007047517170470000280000202DE9F0418C
:1005B0003C4D002605F108072878A5F1180401280C
:1005C0000FD121466078098930B93868E26800EBBC
:1005D000D070B2EB600F04DB0220FFF789FF2070C0
:1005E0002E70687801280FD16078032806D138680A
:1005F000E16800EBD070B1EB600F05DB21890520CD
:10060000FFF776FF20706E70A87801280FD1607810
:10061000022806D13868E16800EBD070B1EB600FBA
:1006200005DB21890020FFF763FF2070AE70E878BA
:1006300001280FD16078052806D13868E16800EB01
:10064000D070B1EB600F05DB21890320FFF750FF6D
:100650002070EE70287901280FD16078042806D127
:100660003868E16800EBD070B1EB600F05DB2189E1
:100670000420FFF73DFF20702E71687901280FD10B
:100680006078012806D13868E16800EBD070B1EBE2
:10069000600F05DB21890120FFF72AFF20706E71B2
:1006A000BDE8F08128000020704700000C4910B51B
:1006B00009686FF001000861094800F0A7FD0021FA
:1006C000084800F0A3FF0421064800F09FFF08211E
:1006D000044800F09BFFBDE8104001F063B8000043
:1006E000800000203800002010B54FF4806000F03A
:1006F000E7F84FF4006000F0E3F8BDE810404FF475
:10070000805000F0DDB872B6FEE7000070B5044618
:1007100000F0DCF90546601C02D00448007804446F
:1007200000F0D4F9401BA042FAD370BD00000020B5
:100730002DE9FC47604C4FF4806301275D4E002596
:1007400021785E4A984239D109B1032934D19846BB
:1007500019469146104600F0AFF9012805D04146F0
:10076000484600F0A9F9C0B124E06570A0780128DE
:1007700020D1E07801280BD0684601F0D3FADDE9FA
:100780000001C4E9080127706078FFF7F7FE11E067
:10079000E570E5602189022088E003206070A07880
:1007A000012807D1E07801282FD1E570E560218983
:1007B00005207BE0C6F80080BDE8FC874FF40063AD
:1007C000984238D1012901D00329F5D1984619461C
:1007D0009146104600F070F9022701280ED04146DC
:1007E000484600F069F90028E4D105206070A0783F
:1007F0000128DFD1E078012818D006E06770A078E2
:100800000128D7D1E07801280BD0684601F08AFA98
:10081000DDE90001C4E908016078FFF7AFFE277049
:10082000C8E7E570E560218900203FE0E570E560FC
:10083000218903203AE04FF480539842BCD1022929
:1008400001D00329B8D1984619469146104600F0C8
:1008500033F901280DD04146484600F02DF9002813
:10086000A8D16770A0780128A4D1E078012819D018
:1008700007E004206070A07801289BD1E07801286F
:100880000BD0684601F04EFADDE90001C4E9080129
:100890006078FFF773FE25708CE7E570E5602189CD
:1008A000042003E0E570E56021890120FFF720FEC8
:1008B00020707FE71404014010000020000C01406C
:1008C000044910B50A68024202D00860FFF730FF01
:1008D00010BD0000140401402DE9F84FDFF8B89175
:1008E0000024A9F1040B23460F2709F1040AABF1F8
:1008F000040EC9E00125A5402A40AA427DD1674ED9
:10090000D1F804C0ACEB0608B44532D014DCBCF11D
:10091000030F3AD009DCBCF1000F2AD0BCF1010F63
:100920001CD0BCF1020F31D11DE0BCF1110F17D06A
:10093000BCF1120F2AD119E0B8F5881F19D006DCD6
:10094000B8F5803F15D0B8F5801F1FD111E0B8F57C
:10095000001F0ED0B8F5041F18D10AE0CB6815E0CF
:10096000CB681B1D12E0CB6808330FE0CB680C335B
:100970000CE08B682BB1012B4FF0080303D04561CD
:1009800004E0042302E0056100E00023FF2A01D80F
:10099000064601E000F104064FEA840501D9A5F1FD
:1009A0002005D6F8008007FA05FC28EA0C0803FAAF
:1009B00005F548EA0508C6F800804D68ED0062D5E7
:1009C000374DAE6946F00106AE61AD6924F003060D
:1009D00005F001050095334D06EB050CDCF80850D9
:1009E000A607360F07FA06F825EA0805DFF8B880EB
:1009F000404503D14FF0000817E044E0DFF8AC8039
:100A0000404502D14FF001080FE0DFF8A4804045D7
:100A100002D14FF0020808E0DFF89880404502D18B
:100A20004FF0030801E04FF0040808FA06F848EA1E
:100A30000508CCF808804D68D9F80060ED024D46F5
:100A400001D5164300E096432E604D68DAF8006049
:100A5000AD02554601D5164300E096432E604D6821
:100A6000DBF80060AD035D4601D5164300E0964318
:100A70002E604D68DEF80060ED03754601D5164323
:100A800000E096432E60641C0D682A46E5407FF422
:100A900031AFBDE8F88F00000804014000001110DC
:100AA000001002400000014000080140000C01401D
:100AB00000100140001401408068084000D001206F
:100AC00070470AB1016170470904FBE7014880687B
:100AD000704700000000002002488168027811443D
:100AE0008160704700000020074810B5016841F0A0
:100AF00010010160032000F075F80F2000F006F8E7
:100B000000F024F8002010BD0020024070B50D4D0B
:100B100004464FF47A712878B1FBF0F00A4909686D
:100B2000B1FBF0F000F0DCFA48B9102C07D200223B
:100B30002146501E00F036F800206C6070BD012088
:100B400070BD0000000000200C0000200C4808B51B
:100B5000816941F001018161816901F00101009128
:100B6000C16941F08051C161C06900F080500090BE
:100B70000448416821F0E06141F00071416008BD26
:100B80000010024000000140002809DB00F01F02B5
:100B9000012191404009800000F1E020C0F80011DF
:100BA00070470000F0B40E4B1B680C46C3F30223E1
:100BB000C3F10705042D00D90425191D072901D209
:100BC000002300E0DB1E012606FA05F1491E214044
:100BD00099409E40761E16403143F0BC01F07FBA2A
:100BE0000CED00E0064900F0070208684FF6FF032D
:100BF000184040EA0220034A104308607047000092
:100C00000CED00E00000FA052DE9F0470F46050065
:100C100061D0434E306800F00700B84209D2306816
:100C200020F0070038433060306800F00700B84219
:100C300051D128683B4C810712D5400703D5606825
:100C400040F4E06060602878000703D5606840F4F5
:100C5000605060606068A96820F0F0000843606040
:100C60002878C00728D06868012810D02168022899
:100C700010D0890700292EDA616821F003010143B1
:100C80006160FFF723FF804641F288390DE021685B
:100C90008903EFE78901EDE7FFF718FFA0EB0801F3
:100CA000494502D90320BDE8F0876068696800F013
:100CB0000C00B0EB810FEFD1306800F00700B842B4
:100CC0000BD9306820F0070038433060306800F0FE
:100CD0000700B84201D00120E5E72878400705D594
:100CE0006068E96820F4E0600843606028780007E5
:100CF00006D56068296920F4605040EAC100606050
:100D000000F038F86168084AC1F30311515CC8402B
:100D10000649086006480068FFF7F8FE0020C2E7B1
:100D200000200240001002406E2100080C0000204C
:100D3000040000200448054900684968044AC1F3DA
:100D40000221515CC84070470C0000200010024096
:100D50007E2100080448054900684968044AC1F337
:100D6000C221515CC84070470C00002000100240B6
:100D70007E2100080E4A51680E4801F00C03042B36
:100D800011D0082B0FD10C48C1F38343C903C05CB9
:100D90000AD55168084AC1F34041921E515C054A88
:100DA0005043B0FBF1F070470449484370470000DE
:100DB0000010024000127A005E21000800093D0088
:100DC0002DE9F84F040070D02078C04DC00749D0FD
:100DD0006868C0F38100012807D06868C0F381000B
:100DE000022809D16868C00306D52868800339D570
:100DF00060680028E7D035E06068B0F5803F0BD030
:100E000010B1B0F5A02F11D0286820F480302860F0
:100E1000286820F4802002E0286840F480302860B0
:100E2000606890B1FFF752FE06460AE0286840F479
:100E300080202860F0E700BFFFF748FE801B642891
:100E400073D828688003F7D50CE0FFF73FFE06460D
:100E500005E000BFFFF73AFE801B6428F0D8286841
:100E60008003F7D420789A4E80074FF001094FF0A5
:100E7000000839D5686810F00C0F07D06868C0F317
:100E80008100022809D16868C00306D42868800759
:100E900014D52069012808D110E02069B0B1C6F846
:100EA0000090FFF713FE074605E00AE1FFF70EFE8C
:100EB000C01B0228C4D828688007F7D52868616954
:100EC00020F0F80040EAC10028600DE0C6F800807C
:100ED000FFF7FCFD074604E0FFF7F8FDC01B022802
:100EE00023D828688007F7D4207800072CD57948C4
:100EF000A169D9B1C0F80090FFF7E8FD074604E00A
:100F0000FFF7E4FDC01B02280FD8686A8007F7D5F9
:100F100071484FF4FA510068B0FBF1F0009000BF47
:100F20000098411E0091FAD20EE080E0C0F80080E7
:100F3000FFF7CCFD074604E0FFF7C8FDC01B022801
:100F400075D8686A8007F7D42078400760D5E869CB
:100F50000027C00008D4E86940F08050E861E869E3
:100F6000012700F0805000905C480168C90513D447
:100F70000168834641F480710160FFF7A7FD824656
:100F800006E000BFFFF7A2FDA0EB0A0064284ED8E0
:100F9000DBF80000C005F5D5E06801280AD008B1EB
:100FA000052813D0286A20F001002862286A20F062
:100FB000040002E0286A40F001002862E06841F283
:100FC000883B98B1FFF782FD82460BE0286A40F02B
:100FD00004002862EEE700BFFFF778FDA0EB0A01EE
:100FE00059455AD8286A8007F6D50CE0FFF76EFD00
:100FF000824605E0FFF76AFDA0EB0A0159454CD88F
:10100000286A8007F6D41FB1E86920F08050E861B3
:10101000E06988B36968C1F38101022944D00228DC
:10102000C6F8608004D0FFF751FD044638E034E094
:10103000FFF74CFD074604E0FFF748FDC01B022800
:101040002BD828688001F7D4206AB0F5803F05D1FD
:101050006868A16820F4003008436860D4E908019A
:101060000843696821F4741108436860C6F8609009
:10107000FFF72CFD044606E025E000BFFFF726FD44
:10108000001B022809D828688001F7D51BE000BFA3
:10109000FFF71CFD001B022802D90320BDE8F88FD2
:1010A00028688001F4D40EE00128F7D06868226A2D
:1010B00000F48031914204D1616A00F470108842DA
:1010C00001D00120EAE70020E8E70000001002401C
:1010D00000004242800442420C00002000700040A8
:1010E00010B5401EB0F1807F01D3012010BD4FF03C
:1010F000E02460610F21601700F0F1FF0020A06183
:1011000007202061002010BD7047704770B590F82F
:101110003C20012A26D0012480F83C40022280F89D
:101120003D2003685A689D6822F070060A683243C1
:101130005A600D4B02689A4208D0B2F1804F05D038
:101140000A4B9A4202D00A4B9A4204D1496825F0D0
:1011500080031943916080F83D40002180F83C10E5
:10116000084670BD022070BD002C01400004004004
:101170000008004010B5040003D094F83D0010B101
:1011800007E0012010BD002084F83C00204600F05C
:101190001FF8022084F83D00211D206800F020FE89
:1011A000012084F8460084F83E0084F83F0084F86B
:1011B000400084F8410084F8420084F8430084F839
:1011C000440084F8450084F83D00002010BD000074
:1011D00008B500680B49884212D10B48C16941F03B
:1011E0000201C161C069002200F0020000901146B6
:1011F0001D20FFF7D7FCBDE808401D20FFF7C4BC49
:1012000008BD0000000400400010024090F83D10AE
:10121000012901D001207047022180F83D100168AA
:10122000CA6842F00102CA6000680B49884208D0CF
:10123000B0F1804F05D00949884202D00849884260
:1012400004D1816801F00701062903D0016841F04B
:101250000101016000207047002C014000040040A3
:101260000008004070B5044690F83C0000250128B5
:1012700017D0012684F83C60022084F83D002068E5
:10128000826822F0770222F47F4282600868502848
:1012900038D00DDC20284FD005DC90B3102811D1B8
:1012A0004AE0022070BD302846D040280AD13BE0F9
:1012B00060282FD070280DD0B0F5805F03D0B0F536
:1012C000005F12D0012584F83D60002084F83C00C6
:1012D000284670BDCB68D1E90121206800F0C9FD26
:1012E0002068816841F0770109E0CB68D1E90121EC
:1012F000206800F0BEFD2068816841F48041816073
:10130000E1E719E0CA684968206800F067FE5021EB
:10131000206806E0CA684968206800F070FE602115
:10132000206800F0B0FDCEE7CA684968206800F088
:1013300055FE40212068F4E7226801461046F0E798
:1013400070472DE9F04104460068C66805694FF012
:101350000007A90713D5B10711D5F91E01610120B6
:101360002077206880698007204602D0FFF7E8FFD9
:1013700004E000F0A3F8204600F046F9277768075C
:1013800016D5700714D521686FF00400086102209B
:1013900020772068806910F4407F204602D0FFF754
:1013A000CFFF04E000F08AF8204600F02DF92777FF
:1013B000280715D5300713D521686FF0080008619C
:1013C000042020772068C0698007204602D0FFF7FC
:1013D000B7FF04E000F072F8204600F015F9277717
:1013E000E80616D5F00614D521686FF010000861E4
:1013F000082020772068C06910F4407F204602D082
:10140000FFF79EFF04E000F059F8204600F0FCF8DA
:101410002777E80708D0F00706D021686FF00100B1
:101420000861204600F040F9280608D5300606D5A8
:1014300021686FF0800008612046FFF765FE6806AE
:1014400008D5700606D521686FF040000861204677
:1014500000F03AF9A8060AD5B00608D521686FF061
:10146000200008612046BDE8F041FFF74EBEBDE810
:10147000F081000000B585B000210091019102913A
:1014800003910068B0F1804F12D10A48816941F0A0
:10149000040181618069694600F00400049007201E
:1014A000009002200190032003900348FFF714FAF4
:1014B00005B000BD0010024000080140704770B543
:1014C000044690F83C0000260D4601280FD001206C
:1014D00084F83C006AB1042A1DD0082A2FD00C2AB7
:1014E0003FD00126002084F83C00304670BD022029
:1014F00070BD206800F0D0FC2068816941F00801CF
:1015000081612068816921F004018161206881691D
:101510002A69114311E0206800F0E6FC2068816927
:1015200041F4006181612068816921F480618161F9
:10153000206881692A6941EA02218161D2E7206835
:1015400000F0FEFC2068C16941F00801C16120681B
:10155000C16921F00401C1612068C1692A69114390
:1015600011E0206800F018FD2068C16941F40061B5
:10157000C1612068C16921F48061C1612068C169CD
:101580002A6941EA0221C161ACE710B5040003D029
:1015900094F83D0010B107E0012010BD002084F850
:1015A0003C00204600F01EF8022084F83D00211D7A
:1015B000206800F015FC012084F8460084F83E0005
:1015C00084F83F0084F8400084F8410084F8420029
:1015D00084F8430084F8440084F8450084F83D0012
:1015E000002010BD08B50068B0F1804F08D1054853
:1015F000C16941F00101C161C06900F001000090C2
:1016000008BD0000001002407047000010B50446FD
:10161000022249B104290ED0082913D094F84100C0
:10162000012816D0012010BD94F83E000128F9D100
:1016300084F83E200FE094F83F000128F2D184F8AE
:101640003F2008E094F840000128EBD184F84020C6
:1016500001E084F841200122206800F0FDFB0F49E1
:101660002068884203D1426C42F400424264206800
:10167000884208D0B0F1804F05D00949884202D095
:101680000849884204D1816801F00701062903D086
:10169000016841F001010160002010BD002C0140F3
:1016A000000400400008004000680549884205D158
:1016B0000448C168491CC160FEF778BF704700004C
:1016C0000004004010000020704770B5040004D0F2
:1016D00094F84100002510B106E0012070BD84F8A7
:1016E0004050204600F024F8242084F8410020686F
:1016F000C16821F40051C160204600F093FC2068CD
:10170000016921F4904101612068416921F02A01B9
:1017100041612068C16841F40051C16065642020C6
:1017200084F8410084F842006563002070BD000029
:1017300030B585B0002400940194029403940068AD
:101740001449884224D11448816941F4804181615F
:10175000816901F480410491816941F00401816152
:1017600080690E4D00F0040004904FF4007000906A
:10177000022001900320039069462846FFF7ACF849
:101780002815CDE90004694628460294FFF7A4F81D
:1017900005B030BD00380140001002400008014093
:1017A000FEE700000D4910B50A68002050630A6882
:1017B00090630968C8630A4C024608212046FFF777
:1017C00080F9002210212046FFF77BF920460022F5
:1017D000BDE810402021FFF774B900003800002058
:1017E000000801402DE9F04186B000242A48009409
:1017F000019402940394816941F02001816181691F
:1018000001F020010491816941F004018161816945
:1018100001F004010491816941F00801816180694E
:101820001E4F00F008000490002238213846FFF7D0
:1018300048F9DFF86C804FF440760122314640468B
:10184000FFF73FF93820009001AA0120032582E824
:10185000310069463846FFF73FF84FF4E0500090FA
:101860001048CDE9010469464046FFF735F801AA62
:101870001120009682E8310069464046FFF72CF8B7
:10188000002201212820FFF78DF92820FFF77CF99D
:1018900006B0BDE8F08100000010024000080140E1
:1018A000000C01400000311010B58AB000240794EC
:1018B0001C2168460894FEF74CFC1E484FF08041FE
:1018C00001604721C0E9011440F2E731C0E9031487
:1018D0008461FFF75AFE08B1FEF715FF079407A9C8
:1018E00014480894FFF712FC08B1FEF70CFF6020C3
:1018F000CDE900040294002269460E480494FFF7E3
:10190000DEFD08B1FEF7FFFE042269460948FFF735
:10191000D6FD08B1FEF7F7FE082269460548FFF735
:10192000CEFD08B1FEF7EFFE0248FFF7A3FD0AB0B7
:1019300010BD00003800002010B586B00024164805
:101940000094019402940394049412490594016054
:101950004721C0E901140921C0E903148461FFF79C
:1019600009FC08B1FEF7CFFE4FF4805000906946A5
:101970000948FFF777FC08B1FEF7C5FE049404A9F7
:1019800005480594FFF7C2FB002801D0FEF7BBFE17
:1019900006B010BD00040040800000200C4810B5C7
:1019A0000A4901604FF4E131416000218160082261
:1019B000C160C0E904128161C161FFF786FE0028A1
:1019C00003D0BDE81040FEF79EBE10BD00380140B8
:1019D000C8000020FEE7FEE770B500240021204685
:1019E00000F0ABF80025002000F02FF96D1CEDB2DF
:1019F000802DF8D3641CE4B2082CEFD370BD10B571
:101A0000012000F001F9BDE81040012000F004B908
:101A100070B500240646802525FA04F0304000D039
:101A2000012000F0F9F8012000F0EEF8002000F0AD
:101A3000EBF8641CE4B2082CEED3012000F0E4F8CB
:101A4000BDE87040002000F0DFB810B5012000F0C4
:101A5000E3F8012000F0D8F8002000F0DDF8BDE840
:101A60001040002000F0D0B810B5002000F0D4F8ED
:101A7000012000F0C9F8BDE81040012000F0CCB80A
:101A800010B500204FF47A720021491C9142FCD31A
:101A9000401C9042F8D3FFF7B2FFAE2000F0C4F82C
:101AA000D52000F0C1F8802000F0BEF8A82000F09A
:101AB000BBF83F2000F0B8F8D32000F0B5F80020C4
:101AC00000F0B2F8402000F0AFF8A12000F0ACF830
:101AD000C82000F0A9F8DA2000F0A6F8122000F0E3
:101AE000A3F8812000F0A0F8CF2000F09DF8D920C5
:101AF00000F09AF8F12000F097F8DB2000F094F85D
:101B0000302000F091F8A42000F08EF8A62000F01C
:101B10008BF88D2000F088F8142000F085F8AF20B5
:101B200000F082F8BDE81040FFF756BF02460120E2
:101B300000E05043491EFCD2704710B50C4640F0FF
:101B4000B00000F071F8102040EA141000F06CF8BA
:101B500004F00F00BDE8104000F066B82DE9F04138
:101B60000746CE004000083E801E15464FF0FF3865
:101B7000F1B2C0B2FFF7E1FF1148002400EB0515F8
:101B80002819A0F5805090F8000E00F05EF8641C53
:101B9000E4B2082CF4D308EB4700F1B2C0B2FFF76F
:101BA000CCFF00242819A0F5805090F8080E00F012
:101BB0004CF8641CE4B2082CF4D3BDE8F0810000BA
:101BC000862100082DE9F04700241D461646884668
:101BD00081460A2713E0291B0A20491EFFF7A6FFAA
:101BE000B6FBF0F0B0FBF7F107FB110208EB0400C5
:101BF000C1B248463032FFF7B1FF641CE4B2AC42D8
:101C0000E9D3BDE8F0870000C2B24FF4807101480B
:101C1000FEF757BF000C0140C2B24FF400710148FB
:101C2000FEF74FBF000C014010B50446FFF70DFF53
:101C30007820FFF7EDFE0020FFF7EAFE2046FFF7D1
:101C4000E7FEBDE81040FFF70FBF10B50446FFF7F1
:101C5000FCFE7820FFF7DCFE4020FFF7D9FE20468F
:101C6000FFF7D6FEBDE81040FFF7FEBE2DE9F05F9E
:101C7000002741F2707614210520FEF739FC274C2D
:101C80004FF000082070C4F80C8042F21075E06834
:101C9000A842FCDB14210120FEF72AFC2070C4F8C6
:101CA0000C80E068A842FCDB14210020FEF720FC39
:101CB0002070C4F80C80E068A842FCDBFFF772FDDE
:101CC0004FF4FA70FEF722FD00254FF006094FF49D
:101CD000487A4FF4967B00BF97FBF9F109FB11702E
:101CE000C0B22821FEF704FC2070C4F80C80E06824
:101CF000B042FCDB7F1C564501DDA6F516766D1C57
:101D00005D45E9DBFFF74EFD0120A070E070032088
:101D10002070C4F80C80BDE8F09F00001000002087
:101D20007047704770B50D4D0646EC689CB1204673
:101D3000FEF7FBFA0A4A0B4BFEF716FA02460B4671
:101D400009480A49FEF782FAFEF700FB0021E96024
:101D5000C6E9004070BD6869F8E700001000002087
:101D6000F168E388B5F8E43E188661188661983F0B
:101D7000FEF7B2BE30B58FB028216846FEF7E9F90C
:101D800014210AA8FEF7E5F901210804CDE90010A5
:101D90000024029402250491CDE907504FF4E0108D
:101DA00009906846FFF70CF808B172B6FEE70F20FD
:101DB000CDE90A054FF48060CDE90C4002210AA864
:101DC0000E94FEF721FF002801D072B6FEE70FB097
:101DD00030BD70470148FFF7B4BA00008000002012
:101DE000F0B50268194B1A4C1A4D4FF080479842D3
:101DF00005D0B84203D0A04201D0A84203D122F0BE
:101E000070064A683243984205D0B84203D0A042D7
:101E100001D0A84203D122F44074CA6822434C691D
:101E200022F08002224302608A68C2620A688262EB
:101E3000984201D109690163012141610169C90722
:101E400003D0016921F001010161F0BD002C0140C6
:101E5000000400400008004010B501F01F030121FC
:101E6000046A99408C430462016A9A4011430162FA
:101E700010BD10B5846842EA032224F47F440A436B
:101E80002243826010BD826822F070020A4342F051
:101E9000070181607047000030B5036A026A22F0D2
:101EA000010202624268846924F073050C682C43C5
:101EB00023F002058B682B430A4DA8420BD123F077
:101EC0000805CB6822F440722B434D6923F00403CC
:101ED00015438A692A434260846149684163036209
:101EE00030BD0000002C014030B5026A036A23F0C7
:101EF00010030362436884690D6824F4E64444EAED
:101F000005248D6822F0200242EA05120B4DA842FA
:101F10000ED1CD6822F0800242EA05124D6923F409
:101F2000406343EA85038D6922F0400243EA85035A
:101F30004360846149688163026230BD002C0140C6
:101F400030B5036A026A22F4807202624268C46990
:101F500023F4007324F073050C682C438D6843EA66
:101F600005230C4DA8420ED1CD6823F4006343EA4B
:101F700005234D6922F4405242EA05128D6923F48B
:101F8000806342EA05124260C4614968C16303622A
:101F900030BD0000002C014030B5046A026A22F412
:101FA000805202624268C3690D6823F4E64343EA43
:101FB00005238D6824F4005444EA0534064DA842F4
:101FC00004D14D6922F4804242EA85124260C36125
:101FD00049680164046230BD002C014010B5036AF9
:101FE000046A24F001040462846924F0F00444EAE1
:101FF000021423F00A020A438461026210BD10B584
:10200000036A046A24F010040462846923F0A003C4
:1020100024F4704444EA023243EA0111826101620D
:1020200010BD000070B5044600680169E26821F443
:102030004051114301612169A06808436169084367
:102040002168CA6841F20C639A430243CA6020685F
:102050004169A26921F44071114341611E49206820
:10206000884202D1FEF776FE01E0FEF763FE00EB48
:10207000C00101EB0012606864218000B2FBF0F344
:10208000B3FBF1F36FF018067343B2FBF0F5B2FB4C
:10209000F0F605EB8305322303EB0515B5FBF1F5EF
:1020A000B6FBF1F605F0F00505EB0615B2FBF0F610
:1020B000B2FBF0F0B0FBF1F06FF01802504306EB0A
:1020C000800003EB0010B0FBF1F0216800F00F007E
:1020D0002844886070BD000000380140FEE7090711
:1020E000090E002804DB00F1E02080F8001470479E
:1020F00000F00F0000F1E02080F8141D704702E0AE
:1021000008C8121F08C1002AFAD170477047002082
:1021100001E001C1121F002AFBD17047FEF7E4FC69
:10212000FFF728FEFFF75EFBFFF7BEFBFFF704FC9F
:10213000FFF734FC4FF47A70FEF7E8FAFFF7A0FCE3
:10214000FEF7B4FAFFF792FD034C02230121227837
:102150000420FFF737FDF8E7110000200102020319
:102160000405060708090A0B0C0D0E0F10100000DD
:102170000000000000000102030406070809000037
:102180000000010203040000000000000000000045
:10219000000000000000000000F800000000000047
:1021A00000333000000000100C06100C0600000088
:1021B00000000000000040C07840C0784000043FAC
:1021C00004043F040400007088FC0830000000187C
:1021D00020FF211E0000F008F000E01800000021A0
:1021E0001C031E211E0000F00888700000001E2144
:1021F00023241927211010160E00000000000000F3
:10220000000000000000000000E0180402000000D0
:1022100000071820400000020418E0000000004001
:10222000201807000000404080F08040400002027B
:10223000010F01020200000000F000000000010197
:10224000011F01010100000000000000000080B03B
:10225000700000000000000000000000000000010D
:102260000101010101010000000000000000003038
:1022700030000000000000000000806018040060D2
:1022800018060100000000E010080810E000000F30
:10229000102020100F00001010F800000000002097
:1022A000203F2020000000700808088870000030DF
:1022B0002824222130000030088888483000001887
:1022C000202020110E000000C02010F800000007A0
:1022D0000424243F240000F8088888080800001916
:1022E000212020110E0000E0108888180000000F47
:1022F000112020110E0000380808C838080000001E
:10230000003F000000000070880808887000001C72
:10231000222121221C0000E010080810E00000002B
:10232000312222110F00000000C0C0000000000098
:1023300000303000000000000080000000000000BD
:1023400080600000000000008040201008000001B4
:102350000204081020004040404040404000040477
:102360000404040404000008102040800000002041
:10237000100804020100007048080808F00000007E
:10238000003036010000C030C828E810E00007180F
:10239000272423140B000000C038E0000000203C7C
:1023A00023020227382008F8888888700000203F20
:1023B000202020110E00C030080808083800071837
:1023C00020202010080008F808080810E000203F2E
:1023D000202020100F0008F88888E8081000203F0F
:1023E00020202320180008F88888E8081000203FE3
:1023F000200003000000C03008080838000007185B
:102400002020221E020008F808000008F808203FDB
:10241000210101213F20000808F8080800000020E1
:10242000203F2020000000000808F8080800C080B5
:1024300080807F00000008F888C028180800203F2E
:1024400020012638200008F8080000000000203F86
:1024500020202020300008F8F800F8F80800203F7D
:10246000003F003F200008F830C00008F808203F77
:10247000200007183F00E01008080810E0000F10C7
:10248000202020100F0008F808080808F000203F5E
:10249000210101010000E01008080810E0000F18F9
:1024A000242438504F0008F8888888887000203F1E
:1024B0002000030C3020007088080808380000381D
:1024C000202121221C00180808F808081800000024
:1024D000203F2000000008F808000008F808001F4E
:1024E000202020201F000878880000C8380800003D
:1024F00007380E010000F80800F80008F800033C57
:102500000700073C0300081868808068180820301E
:102510002C03032C30200838C800C83808000000FD
:10252000203F2000000010080808C83808002038A4
:10253000262120201800000000FE020202000000F8
:10254000007F40404000000C30C000000000000050
:1025500000010638C00000020202FE000000004038
:1025600040407F000000000004020202040000005E
:10257000000000000000000000000000000080805B
:102580008080808080800002020400000000000043
:102590000000000000000000808080800000001922
:1025A000242222223F2008F8008080000000003F03
:1025B000112020110E000000008080800000000E1D
:1025C000112020201100000000808088F800000EFB
:1025D000112020103F200000808080800000001F1C
:1025E000222222221300008080F088888818002090
:1025F000203F202000000000808080808000006B51
:1026000094949493600008F8008080800000203F3C
:10261000210000203F20008098980000000000204A
:10262000203F20200000000000809898000000C09B
:102630008080807F000008F8000080808000203FBC
:1026400024022D302000000808F8000000000020BF
:10265000203F202000008080808080808000203FFC
:1026600020003F20003F8080008080800000203FCD
:10267000210000203F200000808080800000001F9B
:10268000202020201F00808000808000000080FF2C
:10269000A12020110E000000008080808000000E2C
:1026A000112020A0FF80808080008080800020207A
:1026B0003F212000010000008080808080000033E6
:1026C000242424241900008080E080800000000081
:1026D000001F202000008080000000808000001F7C
:1026E000202020103F20808080000080808000011A
:1026F0000E300806010080800080008080800F304E
:102700000C030C300F0000808000808080000020CF
:10271000312E0E31200080808000008080808081FA
:102720008E7018060100008080808080800000216B
:10273000302C2221300000000000807C02020000CA
:102740000000003F404000000000FF0000000000CB
:102750000000FF0000000002027C8000000000403A
:10276000403F0000000000060101020204040000D6
:102770000000000000000000982700080000002072
:1027800038000000FE200008D02700083800002094
:10279000D80400000E210008010000001000000015
:1027A0000000000000127A0003000000000000009A
:1027B0001400000000000000000000000000000005
:1027C0000000000000000000000000000000000009
:04000005080000ED02
:00000001FF
